:020000040800F2
:100000008007002045010008311800083318000857
:10001000371800083B1800083F18000800000000CF
:10002000000000000000000000000000431800086D
:10003000451800080000000047180008491800088B
:100040005F0100085F0100085F01000871180008E7
:100050005F0100085F0100085F0100085F01000800
:100060005F0100085F0100085F0100085F010008F0
:100070005F0100085F0100085F0100085F010008E0
:100080005F0100085F0100085F0100085F010008D0
:100090005F0100085F0100085F0100085F010008C0
:1000A0005F0100085F0100085F0100085F010008B0
:1000B0005F0100085F0100085F0100085F010008A0
:1000C0005F0100085F0100085F0100085F01000890
:1000D0005F010008511800085F0100085F01000877
:1000E0005F0100085F0100085F0100085F01000870
:1000F0005F0100085F0100085F0100085F01000860
:100100005F0100085F0100085F0100085F0100084F
:100110005F0100085F0100085F0100085F0100083F
:100120005F0100085F0100085F0100085F0100082F
:10013000DFF80CD003F0FCF8004800476915000810
:10014000800700200648804706480047FEE7FEE794
:10015000FEE7FEE7FEE7FEE7FEE7FEE7FEE7FEE777
:1001600047020008310100080CB500200190009002
:100170006C48006840F480306A49086000BF6948F4
:10018000006800F4003000900198401C0190009835
:1001900018B90198B0F5A06FF1D16248006800F479
:1001A000003010B10120009001E000200090009884
:1001B000012843D15C48006840F010005A490860AB
:1001C0000846006820F0030008600846006840F018
:1001D0000200086053484068524948600846406839
:1001E00048600846406840F48060486008464068BF
:1001F00020F47C1048600846406840F4E8104860ED
:100200000846006840F08070086000BF45480068FC
:1002100000F000700028F9D04248406820F0030048
:10022000404948600846406840F00200486000BF0E
:100230003C48406800F00C000828F9D10CBD10B50E
:10024000FFF792FF10BD10B53648006840F001007E
:1002500034490860084640683449084031494860DC
:1002600008460068324908402E4908600846006880
:1002700020F4802008600846406820F4FE004860B2
:100280004FF41F008860FFF7DAFF4FF00060294944
:10029000086010BD10B5002100200022214B5B68D2
:1002A00003F00C0121B1042906D0082928D107E068
:1002B000214B224C236027E01F4B204C236023E07E
:1002C000184B5B6803F47010164B5B6803F48032C4
:1002D000022303EB904022B9194B4343174C236090
:1002E0000DE0104B5B6803F4003323B1144B434320
:1002F000124C236003E0104B4343104C236003E097
:100300000D4B0E4C236000BF00BF064B5B68C3F370
:1003100003130C4CE15C094B1B68CB40074C23607A
:1003200010BD000000100240002002400000FFF855
:10033000FFFFF6FE08ED00E000127A00000000204A
:1003400000093D000400002031490143314A116099
:10035000704770B5002100230F22C47804B32D4CE0
:10036000246804F4E064C4F5E064210AC1F10403E4
:10037000CA40447804FA03F1847814402143090107
:10038000254C0678A155047804F01F050124AC40E3
:1003900005786D11AD0005F1E025C5F8004109E0D3
:1003A000047804F01F050124AC401C4D067876113A
:1003B00045F8264070BD1A4A0A400243154B1B1FE0
:1003C0001A60704739B1134A121D12680243114B6B
:1003D0001B1D1A6006E00F4A121D126882430D4B66
:1003E0001B1D1A607047042808D14FF0E0210969ED
:1003F00041F004014FF0E022116107E04FF0E021ED
:10040000096921F004014FF0E022116170470000FA
:100410000000FA050CED00E000E400E080E100E0FF
:1004200080FFFF1F10B5012000F014FC002000F039
:1004300011FC10BD2A49086070472949091F08604E
:100440007047274984310860704701460020254ADB
:1004500010884FF67F4210400843224A10807047B0
:10046000014600201F4A10884FF680721040084352
:100470001C4A1080704708B500220092194A2C3A95
:100480000092009A02440092009A116008BD08B5DB
:1004900001460020009013482C3800900098084432
:1004A00000900098008808BD0D489C300068C0B2DC
:1004B00070470C480830008840F0010009490831B5
:1004C000088070470648A0300068C0B270470548F1
:1004D0000830008840F00200024908310880704767
:1004E00004860D422C6C004010B50446CC48844272
:1004F00008D10121042000F093FB0021042000F02A
:100500008FFB46E0C748844208D10121082000F053
:1005100087FB0021082000F083FB3AE0C2488442B8
:1005200008D10121102000F07BFB0021102000F0F9
:1005300077FB2EE0BD48844208D10121202000F045
:100540006FFB0021202000F06BFB22E0B8488442C2
:1005500008D10121402000F063FB0021402000F081
:100560005FFB16E0B348844208D10121802000F0EF
:1005700057FB0021802000F053FB0AE0AE48844284
:1005800007D10121801500F04BFB0021A01500F0E0
:1005900047FB10BD10B50121084600F041FB0021CA
:1005A000012000F03DFB10BD2DE9F0410246002581
:1005B0000026002000230024002791F803C00CF03F
:1005C0000F0591F803C00CF0100CBCF1000F03D024
:1005D00091F802C04CEA050591F800C0BCF1000F8B
:1005E00031D0146800202BE04FF0010C0CFA00F31E
:1005F000B1F800C00CEA03069E4220D183004FF000
:100600000F0C0CFA03F7BC4305FA03FC4CEA040494
:1006100091F803C0BCF1280F06D14FF0010C0CFA81
:1006200000FCC2F814C00AE091F803C0BCF1480F06
:1006300005D14FF0010C0CFA00FCC2F810C0401CB0
:100640000828D1D31460B1F800C0BCF1FF0F34DD2D
:10065000546800202EE000F1080C4FF0010808FA61
:100660000CF3B1F800C00CEA03069E4221D18300CE
:100670004FF00F0C0CFA03F7BC4305FA03FC4CEAED
:10068000040491F803C0BCF1280F05D100F1080C57
:1006900008FA0CF8C2F8148091F803C0BCF1480FB6
:1006A00007D100F1080C4FF0010808FA0CF8C2F865
:1006B0001080401C0828CED35460BDE8F0814FF66E
:1006C000FF710180022181700421C17070470246D0
:1006D000002093680B400BB1012000E00020704720
:1006E0000146886880B2704702460020D3680B40FC
:1006F0000BB1012000E0002070470146C86880B2BD
:10070000704701617047416170470AB1016100E0C3
:1007100041617047C16070474FF480320A43826183
:100720008161826182698269704702460020434B81
:1007300018684FF68073184040EA021008433F4B98
:10074000186070473E49C8617047F0B50A460023FB
:1007500000240021002500F00046B6F1004F02D130
:10076000364EF16901E0354E7168C0F3034583B23E
:1007700000F44016B6F5401F08D121F070612F4EED
:10078000766826F070662D4F7E6012E000F48016C9
:10079000B6F5801F06D1032606FA05F4A14341F001
:1007A000706106E0460D360103FA06F6B14341F0EA
:1007B000706122B1460D360103FA06F6314300F0AE
:1007C0000046B6F1004F02D11C4EF16101E01B4E14
:1007D0007160F0BD30B500228B071C0F0F2303FAA8
:1007E00004F2164B08338C1053F824309343134C07
:1007F00008348D1044F8253023468C1053F82430EB
:100800008C07240F00FA04F423430C4C08348D1099
:1008100044F8253030BD0A49DC31086070470000DB
:1008200000080140000C014000100140001401408C
:1008300000180140001C0140002001400000014060
:100840000000204210B50121080700F0F6F9002150
:100850004FF0805000F0F1F910BD2A49086270474E
:1008600028490861704701460020274A106820F097
:10087000E0000843106070472249A03108607047CB
:1008800010B502460020204B186820F003001043EA
:1008900018601E4B1B6843F004031C4C23600129A5
:1008A00001D130BF00E020BF184B1B6823F00403C8
:1008B000164C236010BD1448006840F00400124933
:1008C00008600846006840F0020008600F480068B1
:1008D00040F004000D49086000BF00BF30BF704702
:1008E00001460020084A52680A400AB1012000E08F
:1008F000002070470449096841EA8001024A1160FA
:100900007047000000000E420070004010ED00E053
:10091000DF48006840F00100DD4908600846406893
:10092000DC490840DA49486008460068DA4908406E
:10093000D74908600846006820F48020086008460F
:10094000406820F4FE0048604FF41F008860704744
:10095000CF49096821F48031CD4A116011460968F8
:1009600021F480211160B0F5803F03D0B0F5802FD5
:100970000ED106E0C649096841F48031C44A1160CD
:1009800007E0C349096841F4A021C14A116000E0B1
:1009900000BF00BF704710B50146002200230020B1
:1009A0004A11012A02D1BA4C236806E0022A02D178
:1009B000B74C236A01E0B64C636A01F01F020124C0
:1009C00094401C400CB1012000E0002010BD38B55F
:1009D000002000900024002500BF3120FFF7DBFF3E
:1009E00005460098401C00900098B0F5A06F01D01B
:1009F000002DF2D03120FFF7CEFF08B1012400E036
:100A00000024204638BD01460020A14A106820F08D
:100A1000F80040EAC10010607047A04908607047C4
:100A2000024600209A4B586820F47C1042EA0103E9
:100A30001843974B586070479849086670470146BD
:100A40000020934A506820F003000843506070472C
:100A50008F48406800F00C007047014600208C4A27
:100A6000506820F0F00008435060704701460020B5
:100A7000874A506820F4E0600843506070470146A0
:100A80000020834A506820F4605040EAC100506062
:100A9000704729B17E4A527A02437D4B5A7204E074
:100AA0007B4A527A82437A4B5A7270477B49D831DB
:100AB0000860704701460020754A506820F44040A5
:100AC0000843506070470021714A20321170704A0B
:100AD00082F82010012802D004280AD104E0012164
:100AE0006B4A2032117005E00521694A20321170ED
:100AF00000E000BF00BF7047694908607047644963
:100B0000096A0143624A11627047654944390860C5
:100B1000704730B500210022002400235C4D6D6831
:100B200005F00C0121B1042905D0082923D105E0E5
:100B30005C4D056022E05B4D05601FE0544D6D6823
:100B400005F47012524D6D6805F48034022505EBF2
:100B500092421CB9544D554305600BE04C4D6D68F5
:100B600005F400351DB1504D5543056002E04D4D73
:100B70005543056002E04B4D056000BF00BF444D8A
:100B80006D6805F0F0010909484D6B5C0568DD40B2
:100B900045603F4D6D6805F4E061090A434D6B5CAB
:100BA0004568DD4085603A4D6D6805F46051C90ABD
:100BB0003E4D6B5C4568DD40C560354D6D6805F4A4
:100BC0004041890B3A4D6B5CC568B5FBF3F5056197
:100BD00030BD29B12E4A526902432D4B5A6104E0BF
:100BE0002B4A526982432A4B5A61704729B1284ADD
:100BF00092690243264B9A6104E0254A9269824336
:100C0000234B9A61704729B1214AD2690243204B94
:100C1000DA6104E01E4AD26982431D4BDA617047F3
:100C200029B11B4AD2680243194BDA6004E0184A22
:100C3000D2688243164BDA60704729B1144A1269B0
:100C40000243134B1A6104E0114A12698243104BAC
:100C50001A61704712494039086070470F49C864EB
:100C600070470B49C87170470948406A40F080706E
:100C700007494862704701460020054A92680A40C9
:100C80000AB1012000E000207047014988727047D6
:100C9000001002400000FFF8FFFFF6FE0000424295
:100CA0008004424200127A0000093D001400002036
:100CB0002400002029B1504A128802434E4B1A806A
:100CC00004E04D4A128882434B4B1A8070474A48D1
:100CD000001D008840F010004749091D088070473A
:100CE0004548001D00884FF6EF7108404249091D34
:100CF00008807047002140481C300188001F008890
:100D000041EA0040704700B50246FFF7E0FF100CD3
:100D1000394918310880091D0A80FFF7E1FF00BD3D
:100D200000B50246FFF7D3FFC2F303403249083152
:100D30000880091D0A80FFF7D3FF00BD00B50246F9
:100D4000FFF7C5FF100C2C4920310880091D0A80CF
:100D5000FFF7C6FF00BD00202749103109880907A9
:100D6000080B2549143109880843704700BF224801
:100D7000001D008800F020000028F8D070471E48B1
:100D8000001D00884FF6F77108401B49091D0880B7
:100D900000BF1948001D008800F008000028F8D0A6
:100DA000704701460020144A121D12880A400AB1F9
:100DB000012000E0002070470F49091D0988814388
:100DC0000D4A121D11807047014600200A4A121D6B
:100DD00012880A40D0B2084A12880A4012B108B1FB
:100DE000012000E0002070470349091D0988814364
:100DF000014A121D118070470028004010B50446BA
:100E0000BE48844208D101218014FFF709FF002168
:100E1000A014FFF705FF16E0B948844208D101216C
:100E20000014FFF70AFF00212014FFF706FF0AE075
:100E3000B448844207D10121C013FFF7FEFE002110
:100E4000E013FFF7FAFE10BD10B50022028802F48D
:100E500041520B884C8823438C882343CC882343FE
:100E60000C8923434C8923438C892343CC89234316
:100E70001A430280838B4FF2FF74234083830B8AD3
:100E8000038210BD2DE9F04F85B005460C464FF0AA
:100E9000000902274FF000084FF0010B0026B24670
:100EA000A88B4FF240010840A88302202884B5F89F
:100EB0001C90A068022801D100BF38E0A08810B9BA
:100EC0004FF0010B01E04FF0020B8D48854200D13D
:100ED00000E000BF6846FFF71CFEDDF800A0E088D8
:100EE000B0F5007F0AD14FEA1A2000EB80004000E5
:100EF000A168B0FBF1F0401D86B20BE04FEA4B1049
:100F0000BAFBF0F000EB80004000A168B0FBF1F00C
:100F1000401D86B20A20B6FBF0F606F00108A6EBEB
:100F20000800C0F34F074FF6FF7000EA0828022FB1
:100F300001DBFF2F02DD02274FF00008E08840EAC6
:100F4000080038432884A088A189084361880843A1
:100F50002188084340F4006040EA0909A5F81C9084
:100F600005B0BDE8F08F0021018041808180C18003
:100F7000018141818181C181072101827047002166
:100F8000018041808180C1800221816000218181B6
:100F9000704721B1028842F04002028004E00288DA
:100FA0004FF6BF731A400280704721B1828B42F422
:100FB0008062828304E0828B4FF6FF331A40828383
:100FC000704730B5002400230C110125A540ABB2B9
:100FD0001AB185881D43858002E085889D43858000
:100FE00030BD1AB183880B43838002E083888B4332
:100FF00083807047818170470146888970474FF62A
:10100000FF62914204D0028842F48072028004E0C0
:1010100002884FF6FF631A400280704721B1828830
:1010200042F00402828004E082884FF6FB731A408B
:101030008280704702884FF2FF731A400280028854
:101040000A4302807047018841F480510180704753
:1010500021B1028842F40052028004E002884DF679
:10106000FF731A400280704702460020012901D018
:10107000108B00E0908A70470146088A7047B1F5EE
:10108000804F04D1028842F48042028004E002884A
:101090004BF6FF731A400280704702460020138906
:1010A0000B400BB1012000E000207047CA430281D1
:1010B0007047F0B50246002000240023002501F00F
:1010C0000F070126BE40B4B20B1101269E40B3B2F9
:1010D000968806EA03051689264016B10DB101204F
:1010E00000E00020F0BD10B5002201F00F04012344
:1010F000A3409AB2D343038110BD000000300140E9
:1011000000380040003C004010B50446FB488442D3
:1011100009D101218803FFF783FD00214FF48040AE
:10112000FFF77EFD32E0F648844209D101214804F0
:10113000FFF783FD00214FF40030FFF77EFD25E02F
:10114000F048844209D101218804FFF776FD00218F
:101150004FF48020FFF771FD18E0EB48844209D17D
:101160000121C804FFF769FD00214FF40020FFF7BB
:1011700064FD0BE0E548844208D101210805FFF732
:101180005CFD00214FF48010FFF757FD10BD2DE9E5
:10119000F04786B005460E460024A24600BFA14691
:1011A0000027B08900B100BF2F462C8A4CF6FF7093
:1011B0000440F08804432C82AC894EF6F3100440BE
:1011C000B08831890843718908430443AC81AC8AF3
:1011D0004FF6FF400440B0890443AC8201A8FFF7FA
:1011E00098FCC648874202D1DDF810A001E0DDF886
:1011F0000CA0A88900F4004040B10AEBCA0000EB43
:101200000A1031684900B0FBF1F807E00AEBCA00A8
:1012100000EB0A1031688900B0FBF1F86420B8FBDC
:10122000F0F004012009642101FB1089A88900F471
:10123000004040B1322000EBC900B0FBF1F000F0FB
:101240000700044308E0322000EB09106421B0FBE2
:10125000F1F000F00F0004432C8106B0BDE8F087E8
:101260004FF41651016000218180C18001810C2161
:10127000418100218181704710B502460020108A0B
:101280004FF2FF0318400B884C8823438C8823437C
:10129000CC8823431843108210BD00210180418077
:1012A0008180C180704721B1828942F400528281DD
:1012B00004E082894DF6FF731A4082817047F0B5D1
:1012C0000346002400260025002040F66A17B94294
:1012D00000D100BF1846C1F3421401F01F060127D8
:1012E00007FA06F5012C01D10C3004E0022C01D1E3
:1012F000103000E014301AB107682F43076002E095
:101300000768AF430760F0BD1AB1838A0B4383823D
:1013100002E0838A8B4383827047028A4FF6F07320
:101320001A400282028A0A430282704782894FF27F
:10133000FF731A40828182890A438281704721B1FA
:10134000828942F00202828104E082894FF6FD73B5
:101350001A4082817047028A4FF6DF731A40028278
:10136000028A0A430282704721B1028A42F4804213
:10137000028204E0028A4BF6FF731A400282704731
:10138000C1F308028280704701468888C0F30800D4
:101390007047818941F0010181817047028BD2B28F
:1013A0000283028B42EA012202837047028B02F41D
:1013B0007F420283028B0A430283704721B1828AF3
:1013C00042F02002828204E0828A4FF6DF731A40E4
:1013D0008282704721B1828A42F01002828204E048
:1013E000828A4FF6EF731A408282704721B1828A57
:1013F00042F00802828204E0828A4FF6F7731A40B4
:101400008282704721B1828942F40042828103E0E6
:101410008289C2F30E028281704721B1828A42F42E
:101420000062828204E0828A4FF2FF731A40828255
:101430007047828A4FF6FB731A408282828A0A437F
:101440008282704721B1828A42F00202828204E0E5
:10145000828A4FF6FD731A4082827047024600204E
:10146000B1F5007F00D100BF13880B400BB1012004
:1014700000E00020704701F40072B2F5007F00D157
:1014800000BFCA430280704770B5024600240023A3
:101490000025002040F66A16B14200D100BFC1F31A
:1014A000421501F01F03012606FA03F3012D02D1B4
:1014B0009689334006E0022D02D1168A334001E0BE
:1014C000968A33400C12012606FA04F4168834403A
:1014D00013B10CB1012000E0002070BD10B5002256
:1014E000002340F66A14A14200D100BF0A12012471
:1014F0009440A3B2DC43048010BD000000380140DA
:101500000044004000480040004C004000500040B3
:101510000CE0002106E0002200E0521CB2F57A7FC8
:10152000FBD3491CB1F57A7FF5D3401E0028F0D1DA
:10153000704710B5034607E018780C78A04201D038
:10154000002010BD5B1C491C1000A2F10104A2B2D6
:10155000F2D10120F5E701B502E00098401E0090AD
:1015600000980028F9D108BD0EB500F00BFA00F084
:10157000A4F95CA002F014F901F017F900F0F6FDEF
:10158000002000F0D5FE5E4A0021084601F009F86F
:101590005B4A0121002001F004F8594A0221002091
:1015A00000F0FFFF564A0321002000F0FAFF544AE2
:1015B0000421002000F0F5FF514A0521002000F031
:1015C000F0FF4F4A0621002000F0EBFF4C4A0721B4
:1015D000002000F0E6FF01F0BBF901F018F901F07E
:1015E000FFFA484801F051FB00F0F0F900F0E7FB8A
:1015F00045490860C820FFF7AEFF00F0BBFB434938
:101600000860414802680846016841A002F0C8F835
:101610003E4800684C4988422DD14CA002F0C0F8E9
:1016200040F6FF7000F08EFA1A2240F6FF714B4828
:1016300000F0E9FA49494AA002F0B2F81A2240F64D
:10164000FF714C4800F070FB4A494BA002F0A8F82B
:101650001A2248494148FFF76CFF4C490870084678
:101660000078012803D14AA002F09AF809E04DA0C1
:1016700002F096F805E004205049486150A002F0BD
:101680008FF82EE05548006801282AD1FFF732FB79
:1016900004461C4901F021FC0020504908605048D4
:1016A0000068401C4E490860084600680521B0FBF0
:1016B000F1F201FB1200A0B901A801F0F8F801282D
:1016C0000CD19DF8070000909DF806309DF805208C
:1016D0009DF8041043A002F063F802E04FA002F06E
:1016E0005FF8CFE70D0A4F4C454420444854313150
:1016F000205553415254205732355136340D0A008B
:101700004D00002060000020440000204800002020
:101710000D0A20466C617368494420697320307853
:1017200025582C094D616E7566616374757265721A
:1017300020446576696365204944206973203078C8
:1017400025580D0A000000001740EF000D0A206721
:101750006574205732355136340D0A0028000020B8
:101760000D0A2077726974652064617461202573A5
:10177000200D0900600100200D0A207265616420BF
:1017800064617461202573200D0A00004C00002064
:101790000D0A207465737420573235513634206F2A
:1017A0006B0A0D000D0A2074657374205732355191
:1017B0003634206572726F720A0D0000001001400D
:1017C0000D0A63616E206E6F742067657420573256
:1017D00035513634204944210A0D0000B400002060
:1017E0005C0000200D0A7265616420646874313108
:1017F000206F6B200D0A0D0A524820697320256462
:101800002E256420A3A552482C205420697320253E
:10181000642E2564A1E6200D0A0000005265616473
:10182000204448543131204552524F52210D0A0074
:10183000704700BFFEE700BFFEE700BFFEE700BF46
:10184000FEE770477047704710B501F0C8F810BD4B
:1018500010B540F225510D48FFF716FE38B10B4880
:10186000FFF792FDC4B221460848FFF789FD10BD7D
:1018700010B50120FFF7A8FA38B10120FFF7B4FA3C
:10188000012003490860FFF771FA10BD00380140DC
:10189000B400002008B54FF4A060FEF755FD2520E8
:1018A0008DF8000001208DF801008DF802008DF800
:1018B00003006846FEF74DFD08BD00B585B0012167
:1018C0000420FFF793F901218803FFF78FF94FF404
:1018D0000070ADF8100018208DF8130003208DF86B
:1018E000120004A92548FEF75FFE4FF48060ADF8B2
:1018F000100004208DF8130004A92048FEF754FEC0
:101900004FF4E13000900020ADF80400ADF806007F
:10191000ADF80800ADF80C000C20ADF80A006946DF
:101920001748FFF734FCFFF7B5FF012240F22551BD
:101930001348FFF7C4FC01211148FFF7B4FC05B0C0
:1019400000BD70B504460D46E1B20D48FFF718FD25
:1019500000BF80210A48FFF781FD0028F9D020460A
:1019600070BD10B5044600BF20210548FFF776FD85
:101970000028F9D00248FFF707FD10BD000801401C
:101980000038014008B501211020FFF72FF904208D
:10199000ADF8000010208DF8030003208DF8020040
:1019A00069460948FEF700FE0820ADF800006946C8
:1019B0000548FEF7F9FD04210348FEF7A2FE0821C1
:1019C0000148FEF79EFE08BD0010014000B587B03B
:1019D00001210803FFF70AF90121C420FFF706F9E6
:1019E0001020ADF8040003208DF8060010208DF8BB
:1019F000070001A9FE48FEF7D7FD2020ADF804003E
:101A000018208DF8070001A9F948FEF7CDFD402008
:101A1000ADF8040001A9F648FEF7C6FD8020ADF838
:101A2000040001A9F248FEF7BFFD1021F048FEF7BF
:101A300068FE0020ADF808004FF48270ADF80A008F
:101A40000020ADF80C000220ADF80E000120ADF82A
:101A500010004002ADF812000820ADF8140000207C
:101A6000ADF816000720ADF8180002A9E148FFF70D
:101A7000EBF90121DF48FFF78CFA07B000BD10B584
:101A800004462146DCA001F08BFE002010BD10B5FD
:101A900004464FF48050E44908600AE0E2490868CF
:101AA000411EE14A116020B90020FFF7E8FFC0B2F3
:101AB00010BD0221CF48FFF7F0FA0028EED02146F2
:101AC000CC48FFF797FA4FF48050D74908600AE0F6
:101AD000D5490868411ED44A116020B90120FFF79A
:101AE000CEFFC0B2E4E70121C248FFF7D6FA0028D2
:101AF000EED0C048FFF780FAC0B2D9E710B5002495
:101B00001021BB48FEF7FFFD0520FFF7C0FF00BF17
:101B1000FF20FFF7BCFF044604F001000028F7D1C6
:101B20001021B348FEF7EDFD10BD10B51021B048EF
:101B3000FEF7E9FD0620FFF7AAFF1021AC48FEF7EB
:101B4000E0FD10BD10B50446FFF7EFFFFFF7D6FF2D
:101B50001021A748FEF7D7FD2020FFF798FFC4F318
:101B60000740FFF794FFC4F30720FFF790FFE0B2B0
:101B7000FFF78DFF10219E48FEF7C3FDFFF7BEFF64
:101B800010BD10B5FFF7D1FF10219948FEF7BBFD3E
:101B9000C720FFF77CFF10219548FEF7B2FDFFF745
:101BA000ADFF10BD70B505460C461646FFF7BDFFEC
:101BB00010218F48FEF7A7FD0220FFF768FFC4F34E
:101BC0000740FFF764FFC4F30720FFF760FFE0B2B0
:101BD000FFF75DFFB6F5807F04DD4FF4807693A0BC
:101BE00001F0DEFD03E02878FFF751FF6D1C3000A7
:101BF000A6F101018EB2F6D110217D48FEF781FDDC
:101C0000FFF77CFF70BD2DE9F05F07460E461446D6
:101C10004FF00008C146C2460025AB4606F0FF0A59
:101C2000CAF10000C5B22046E11704EB1161C1F30F
:101C30000728E11704EB11610912A4EB012101F05F
:101C4000FF09BAF1000F20D1B8F1000F05D12246EB
:101C500031463846FFF7A6FF64E009E04FF4807292
:101C600031463846FFF79EFF06F5807607F5807708
:101C70005FEA0800A8F1010101F0FF08EED14A4631
:101C800031463846FFF78EFF4CE0B8F1000F18D10F
:101C9000A94510DDA9EB050000F0FF0B2A463146EF
:101CA0003846FFF77FFF2E442F445A4631463846C8
:101CB000FFF778FF36E0224631463846FFF772FFDD
:101CC00030E0601B84B22046E11704EB1161C1F3E0
:101CD0000728E11704EB11610912A4EB012101F0BF
:101CE000FF092A4631463846FFF75CFF2E442F4451
:101CF00009E04FF4807231463846FFF753FF06F58E
:101D0000807607F580775FEA0800A8F1010101F00D
:101D1000FF08EED1B9F1000F04D04A4631463846EB
:101D2000FFF740FFBDE8F09F70B505460C4616462C
:101D300010212F48FEF7E7FC0320FFF7A8FEC4F3AD
:101D40000740FFF7A4FEC4F30720FFF7A0FEE0B2B0
:101D5000FFF79DFE04E0FF20FFF799FE28706D1C41
:101D60003000A6F101018EB2F5D110212048FEF716
:101D7000C8FC70BD2DE9F041002400250026002795
:101D800010211B48FEF7BFFC9F20FFF780FEFF20BD
:101D9000FFF77DFE0546FF20FFF779FE0646FF2090
:101DA000FFF775FE074610211148FEF7AAFC28042C
:101DB00040EA062040EA07042046BDE8F08110B55D
:101DC000002410210A48FEF79EFCAB20FFF75FFEBF
:101DD000FF20FFF75CFEFF20FFF759FEFF20FFF713
:101DE00056FEFF20FFF753FE04461021004837E05F
:101DF00000080140003001403C3C2D464C41534816
:101E00002D4552524F522D3E3E2053504920B5C8C9
:101E1000B4FDB3ACCAB1216572726F72436F646571
:101E2000203D2025640A00007C0000203C3C2D461B
:101E30004C4153482D4552524F522D3E3E20535057
:101E4000495F464C4153485F5061676557726974FA
:101E50006520746F6F206C61726765210A00000055
:101E6000FEF74FFC204610BD10B504461021324845
:101E7000FEF749FC0320FFF70AFEC4F30740FFF713
:101E800006FEC4F30720FFF702FEE0B2FFF7FFFDF6
:101E900010BD10B5FF20FFF7FAFD10BD10B50446C8
:101EA0004FF480502549086009E024490868411E24
:101EB000224A116018B90220FFF7E1FD10BD02218E
:101EC0001F48FFF7EAF80028EFD021461C48FFF72B
:101ED00091F84FF480501949086009E017490868E3
:101EE000411E164A116018B90320FFF7C8FDE5E747
:101EF00001211348FFF7D1F80028EFD01048FFF771
:101F00007BF8DBE710B510210B48FEF7FCFBB9208E
:101F1000FFF7BDFD10210848FEF7F3FB10BD10B51B
:101F200010210548FEF7EFFBAB20FFF7B0FD1021B5
:101F30000148FEF7E6FB10BD000801407C000020D0
:101F40000030014070B5044600F081FB204600F0EF
:101F5000A1FB00F0E6FB054600F08EFB00F013FC51
:101F6000284670BD10B5002406E02046641CB0F57C
:101F7000803F01D3012010BD7820FFF7E3FF002848
:101F8000F3D100BFF7E72DE9F04106460F461546AD
:101F900000F05DFB782000F07DFB00F0C2FB00B19B
:101FA00025E0F8B200F076FB00F0BBFB00B11EE0CC
:101FB00000F04DFB792000F06DFB00F0B2FB00B1AA
:101FC00015E000240CE000F08DFB3055681EA042A7
:101FD00002D000F0C2FB01E000F0D5FB601C84B22F
:101FE000AC42F0DB00F048FB0120BDE8F08100F0DE
:101FF00043FB0020F9E72DE9F04707468846914664
:10200000464600242CE014B106F00700E8B900F0C1
:1020100033FB00250AE000F01AFB782000F03AFBC1
:1020200000F07FFB00B904E0681C85B2B5F57A7F4B
:10203000F1DB00BFB5F57A7F00D11DE0F0B200F012
:1020400029FB00F06EFB00B116E0385D00F022FBCA
:1020500000F067FB00B10FE0701C86B2601C84B218
:102060004C45D0DB00F008FBFFF77CFF012800D1D6
:1020700002E00120BDE8F08700F0FEFA0020F9E759
:1020800010B5C0B0002404E0FF200DF80400601C6F
:1020900084B2FF2CF8DD4FF4807200216846FFF710
:1020A000AAFF20B9EFA001F07BFB40B010BDF2A069
:1020B00001F076FB00BFF8E710B57820FFF742FF8C
:1020C000012804D1F1A001F06BFB002010BD002419
:1020D00003E0F4490C55601C84B2FF2CF9DD4FF489
:1020E00080720021EF48FFF786FF20B9EEA001F0D3
:1020F00057FB0020EAE7F1A001F052FB4FF4807299
:102100000021F348FFF73FFF20B9F2A001F048FBA0
:102110000020DBE7F4A001F043FB00241DE0EC48C5
:10212000005DE049095D884209D0E948015DF5A0FC
:1021300001F036FBF5A001F033FB0020C6E7E448D0
:10214000015DFBA001F02CFB04F00F000F2802D171
:10215000C8A001F025FB601C84B2FF2CDFDDF6A0D7
:1021600001F01EFB0120B1E77047704710B5AE20AB
:10217000CC49087001220021CA48FFF73CFF20200B
:10218000C849087001220021C648FFF734FF10201B
:10219000C449087001220021C248FFF72CFFB0207B
:1021A000C049087001220021BE48FFF724FFC82063
:1021B000BC49087001220021BA48FFF71CFF00202B
:1021C000B849087001220021B648FFF714FF10201B
:1021D000B449087001220021B248FFF70CFF4020EB
:1021E000B049087001220021AE48FFF704FF8120AA
:1021F000AC49087001220021AA48FFF7FCFE7F20AD
:10220000A849087001220021A648FFF7F4FEA1208A
:10221000A449087001220021A248FFF7ECFEA62085
:10222000A0490870012200219E48FFF7E4FEA82083
:102230009C490870012200219A48FFF7DCFE3F20EC
:1022400098490870012200219648FFF7D4FEA42087
:1022500094490870012200219248FFF7CCFED32058
:1022600090490870012200218E48FFF7C4FE00202B
:102270008C490870012200218A48FFF7BCFED52056
:1022800088490870012200218648FFF7B4FEF0203B
:1022900084490870012200218248FFF7ACFED92052
:1022A00080490870012200217E48FFF7A4FE222009
:1022B0007C490870012200217A48FFF79CFEDA2051
:1022C00078490870012200217648FFF794FE122019
:1022D00074490870012200217248FFF78CFEDB2050
:1022E00070490870012200216E48FFF784FE20200B
:1022F0006C490870012200216A48FFF77CFE8D209E
:1023000068490870012200216648FFF774FE142016
:1023100064490870012200216248FFF76CFEAF207B
:1023200060490870012200215E48FFF764FE10BD7D
:1023300070B50546002426E004F1B0005949087044
:10234000012200215748FFF756FE0020554908702A
:10235000012200215348FFF74EFE1020514908701A
:10236000012200214F48FFF746FE002607E04D48B6
:10237000057001224021FFF73EFE701CC6B2802E80
:10238000F5DB601CC4B2082CD6DB70BD70B500262E
:1023900000242BE004F1B000424908700122002122
:1023A0004048FFF728FE00203E4908700122002126
:1023B0003C48FFF720FE10203A4908700122002116
:1023C0003848FFF718FE00250CE03046761C6049BF
:1023D000085C34490870012240213248FFF70BFEA7
:1023E000681CC5B2802DF0DB601CC4B2082CD1DBA8
:1023F00070BD0CE0002106E0002200E0521CB2F5A6
:102400007A7FFBD3491CB1F57A7FF5D3401E0028B3
:10241000F0D170472DE9F0470746884614464FF043
:10242000000A00263D46B5E0C5F1B7001D49087019
:10243000012200211B48FFF7DEFD0020194908702A
:10244000012200211748FFF7D6FD08F110001549B9
:102450000870012200211348FFF7CDFD4FF000095D
:1024600091E00000B2C1B3FD656570726F6DB3F6A7
:10247000B4EDA3A10D0A0000B2C1B3FD6565707291
:102480006F6DB3C9B9A6A3A10D0A0000C3BBD3D019
:10249000BCECB2E2B5BDB4AED0D0454550524F4DC4
:1024A000210D0A007A010020D0B4656570726F6D4D
:1024B000B3F6B4EDA3A10D0A00000000D0B4656529
:1024C00070726F6DB3C9B9A6A3A10D0A0000000018
:1024D0007A020020B6C1656570726F6DB3F6B4ED17
:1024E000A3A10D0A00000000B6C1656570726F6D92
:1024F000B3C9B9A6A3ACCAFDBEDDC8E7CFC2A3BAB3
:102500000D0A00003078253032582000B4EDCEF3AB
:102510003A454550524F4DB6C1B3F6D3EBD0B4C88F
:10252000EBB5C4CAFDBEDDB2BBD2BBD6C200000053
:102530002025303258000000656570726F6DB6C19D
:10254000D0B4B2E2CAD4B3C9B9A60D0A00000000E3
:10255000423C0008A0576138374901EBC0025046A1
:102560000AF1010A105C35490870BAF1100F01D167
:102570004FF0000A012240213048FFF73CFD09F1ED
:10258000010000F0FF09B9F1100FE3DB681CC5B2D0
:10259000701CC6B2A05D10B1082DFFF645AFBDE8B6
:1025A000F0872DE9F04704460D4616464FF0000926
:1025B0000027AA4605F1B000204908700122002139
:1025C0001E48FFF718FD04F00F001C490870012297
:1025D00000211A48FFF70FFD102000EB14101749D7
:1025E0000870012200211548FFF705FDB8461DE0DF
:1025F000F05D00B91DE0F05720380F4901EBC00233
:10260000484609F10109105C0C490870B9F1080F3E
:1026100003D14FF00009781CC7B2012240210748BE
:10262000FFF7E9FC08F1010000F0FF08B8F1800FA6
:10263000DEDB00BFBDE8F087424000087A010020E1
:10264000002001E0411CC8B20A28FBDB704710B52E
:1026500040206149086020200860FFF7F1FF40201A
:102660005D49091D0860FFF7EBFF20205A49091D4D
:102670000860FFF7E5FF10BD10B540205649091D61
:1026800008602020091F0860FFF7DAFF4020524948
:10269000086010BD70B50446002520E004F08000FD
:1026A00018B140204C49086003E040204A49091D08
:1026B0000860FFF7C5FF202047490860FFF7C0FF0B
:1026C00020204549091D0860072D02D14020091F1F
:1026D00008606006040EFFF7B3FF681CC5B2082D42
:1026E000DCDB70BD70B50024002516E06006040E2A
:1026F000202039490860FFF7A3FF374808380068F1
:1027000000F0400008B1601CC4B220203249091D0D
:102710000860FFF795FF681CC5B2082DE6DB204670
:1027200070BD10B540202C490860FFF789FF2020BC
:1027300029490860FFF784FF27480838006800F03F
:10274000400008B1012400E0002420202249091D96
:102750000860FFF775FF204610BD10B540201E49E8
:10276000091D0860FFF76CFF20201B490860FFF778
:1027700067FF20201849091D0860FFF761FF40200E
:102780001549086010BD10B5402013490860FFF7D7
:1027900057FF202010490860FFF752FF20200E4904
:1027A000091D0860FFF74CFF10BD08B5012104208A
:1027B000FEF71CFA6020ADF8000003208DF802003F
:1027C00014208DF80300694603481038FDF7ECFE2D
:1027D000FFF752FF08BD00001008014010B5044685
:1027E000204600F0EAF810BD08B501211020FEF7E0
:1027F000FDF90120ADF8000010208DF80300032042
:102800008DF8020069465148FDF7CEFE08BD10B5AF
:10281000FFF7EAFF01214D48FDF773FF10BD08B532
:102820000120ADF8000048208DF8030069464748B4
:10283000FDF7BAFE08BD08B50120ADF80000102074
:102840008DF8030003208DF8020069463F48FDF72C
:10285000ABFE08BD70B50025002424E000BF0121B7
:102860003A48FDF734FF0028F9D03C20FFF7B6FFC7
:1028700001213648FDF72BFF01280DD100BF0121B2
:102880003248FDF724FF0128F9D0C4F107010120E7
:102890008840C0B2054304E0C4F10701012088402C
:1028A0008543601CC4B2082CD8DB284670BD10B527
:1028B0000446FFF7C0FF01212448FDF724FF44F23E
:1028C0005060FFF78BFF01212048FDF71AFF1E2003
:1028D000FFF784FFFFF7A3FF01211C48FDF7F7FE78
:1028E00080BB00BF01211948FDF7F1FE0028F9D097
:1028F00000BF01211548FDF7EAFE0128F9D0FFF7D6
:10290000A9FF2070FFF7A6FF6070FFF7A3FFA0707C
:10291000FFF7A0FFE070FFF79DFF2071FFF78BFF2F
:1029200001210A48FDF7EDFE207861780844A1787E
:102930000844E17808442179884201D1012010BD82
:102940000020FCE7FFE70020F9E70000001001404D
:1029500030B527480068274AB0FBF2F1B1F1807F1B
:1029600001D301201DE021F07F40401E4FF0E02206
:10297000506150170F22002807DA13071D0E1E4B57
:1029800000F00F04241F1D5503E013071C0E1B4B02
:102990001C5400BF00204FF0E0229061072010611E
:1029A000002008B100BFFEE74FF0E020006920F0F2
:1029B00001004FF0E021086130BD01B510490098D9
:1029C00008604FF0E020006940F001004FF0E02186
:1029D000086100BF0A4800680028FBD108BD08480C
:1029E000006820B106480068401E0549086070472D
:1029F0000000002040420F0018ED00E000E400E07D
:102A000080000020F0B58DB004463022704901A846
:102A100000F07CFB6069451E642195FBF1F12846BE
:102A2000EA1705EB9272C1EBA2014FF4C87295FB55
:102A3000F2F28F186069C11700EB91718910A0EB59
:102A4000810191B96422616991FBF2F302FB1311D8
:102A500031B99200616991FBF2F302FB131121B9C4
:102A60002169022901DD012600E0002640F26D10F7
:102A700005FB00712069401E01AA52F8200008449D
:102A8000E16808440644072096FBF0F100FB116062
:102A9000A0610DB0F0BD10B501460869801E086147
:102AA000002805DC08690C3008614869401E48614F
:102AB0006423486990FBF3F04A69D31702EB9373E0
:102AC000C0EBA3004FF4C87492FBF4F3034440F24C
:102AD0006F14086960430C2490FBF4F01844CB6831
:102AE000034440F26D1402FB04303A4BC01A00EB71
:102AF00040008B6803EBC000C0EB00104B6803EB99
:102B00008000C0EB00100B6803EB800010BD2DE9C6
:102B1000F04107460C463048B7FBF0F6B7FBF0F142
:102B200000FB11784FF4616098FBF0F0A0604FF467
:102B3000616098FBF0F100FB11803C2190FBF1F00B
:102B400060604FF4616098FBF0F100FB11803C2164
:102B500090FBF1F201FB1200206040F2B27509E037
:102B600005F0030010B94FF4B77001E040F26D10AA
:102B7000361A6D1C05F0030010B94FF4B77001E070
:102B800040F26D10B042EBDD65616069C11700EB8A
:102B900091718910A0EB810111B91D200F49486086
:102BA000012505E0681E0D4951F82000361A6D1CFC
:102BB000681E0A4951F82000B042F3DD1C2048602D
:102BC0002561701CE0602046FFF71CFFBDE8F08126
:102BD000444300088BFA0A00805101008400002061
:102BE00008B54FF4C060FDF7AFFB03208DF800007F
:102BF00001208DF8010000208DF8020001208DF8E1
:102C000003006846FDF7A5FB08BD10B501214FF094
:102C1000C050FDF7F8FF0120FDF71FFEFDF702FC95
:102C20000120FDF769FF00BF6120FDF7B4FE002819
:102C3000FAD04FF40070FDF762FF0120FDF765FF49
:102C4000FEF79DF8FEF792F801210846FEF732F8EC
:102C5000FEF78CF849F63F40FEF762F8FEF786F87B
:102C600010BD70B50446FFF7D0FFFEF77FF8204691
:102C7000FFF7C8FE2046FFF70EFFA0F5E145284606
:102C8000FEF741F8FEF772F870BD10B50446042057
:102C9000FDF7FDFB4AF2A55188420ED0A2A000F03C
:102CA0007FFDA9A000F07CFD2046FFF7DAFF4AF285
:102CB000A5510420FDF7DFFB2AE001214FF0C050B1
:102CC000FDF7A1FF0120FDF7C8FD0120FDF714FF6E
:102CD00000BF6120FDF75FFE0028FAD07B20FDF7E2
:102CE0005AFE18B19EA000F05BFD06E07A20FDF7C9
:102CF00052FE10B1A3A000F053FDABA000F050FDB8
:102D0000FEF73DF801210846FDF7D4FFFEF72EF847
:102D1000FDF7AAFF10BD38B504460020009000253D
:102D2000A9A000F03DFD00BFB54800F039FD69469F
:102D3000B4A000F0FDF940F2B2710098884204D3CB
:102D400040F2F6710098884204D9AFA0009900F0D3
:102D500027FD06E0B5A0009900F022FD0098606113
:102D600000E0E1E700BF00BFB64800F019FD69468A
:102D7000A4A000F0DDF9009810B100980C2804D947
:102D8000A1A0009900F00CFD06E0AFA0009900F0B2
:102D900007FD0098206100E0E6E700BF20690D28EC
:102DA00032D2DFE800F0310714080F09100A0B11C6
:102DB0000C120D0000BF00BF00BF00BF00BF00BF6E
:102DC0001F2521E000BF00BF00BF1E251CE0606979
:102DD000C11700EB91718910A0EB810191B96422B8
:102DE000616991FBF2F302FB131131B99200616941
:102DF00091FBF2F302FB131121B92169022901DDD4
:102E00001D2500E01C2500BF00BF00BF29469448D7
:102E100000F0C6FC69467BA000F08AF9009810B16A
:102E20000098A84204D978A0009900F0B9FC06E007
:102E30008CA0009900F0B4FC0098E06000E0E5E7A9
:102E400000BF00BF8D4800F0ABFC69466DA000F0EC
:102E50006FF90098172804D96BA0009900F0A0FC26
:102E600006E087A0009900F09BFC0098A06000E0BD
:102E7000E8E700BF00BF884800F092FC694661A007
:102E800000F056F900983B2804D95FA0009900F0A3
:102E900087FC06E081A0009900F082FC0098606049
:102EA00000E0E8E700BF00BF824800F079FC694617
:102EB00054A000F03DF900983B2804D952A0009995
:102EC00000F06EFC06E07CA0009900F069FC009820
:102ED000206000E0E8E700BF38BD7FB505460C463E
:102EE00005F5E14621463046FFF711FE94E80B0058
:102EF000E268CDE90023CDE90210294674A0D4E9A7
:102F0000043200F04DFC7FBD04460CE07E480068B2
:102F1000012808D1FDF7EEFE05462146FFF7DDFF4B
:102F2000002079490860F1E70D0A0D0A2052544348
:102F3000206E6F742079657420636F6E66696775A3
:102F40007265642E2E2E2E000D0A0D0A2052544357
:102F500020636F6E666967757265642E2E2E2E0073
:102F60000D0A0D0A20506F776572204F6E20526552
:102F7000736574206F636375727265642E2E2E2ED6
:102F8000000000000D0A0D0A2045787465726E611C
:102F90006C205265736574206F636375727265642B
:102FA0002E2E2E2E000000000D0A204E6F206E6582
:102FB000656420746F20636F6E6669677572652043
:102FC0005254432E2E2E2E000D0A3D3D3D3D3D3DDB
:102FD0003D3D3D3D3D3D3D3D3D3D3D3D3D3D3D3D21
:102FE0003D3D3DC9E8D6C3CAB1BCE43D3D3D3D3D94
:102FF0003D3D3D3D3D3D3D3D3D3D3D3D3D000000B8
:103000003C440008256400000D0A20C4FACAE4C844
:10301000EBB5C4CAFDD7D6CAC73A2564A3ACB2BBC8
:10302000B7FBBACFD2AAC7F3000000000A0D2020D8
:10303000C4EAB7DDB1BBC9E8D6C3CEAA3A2025643D
:103040000A0D0000B44300080A0D2020D4C2B7DDE9
:10305000B1BBC9E8D6C3CEAA3A2025640A0D000048
:103060000C4500080A0D2020C8D5C6DAB1BBC9E856
:10307000D6C3CEAA3A2025640A0D0000F843000802
:103080000A0D2020CAB1D6D3B1BBC9E8D6C3CEAA97
:103090003A2025640A0D0000C84400080A0D2020CB
:1030A000B7D6D6D3B1BBC9E8D6C3CEAA3A202564D9
:1030B0000A0D0000844400080A0D2020C3EBD6D37B
:1030C000B1BBC9E8D6C3CEAA3A2025640A0D0000D8
:1030D00020554E49583D20256420202564207965DF
:1030E0006172202564206D6F6E74682025642064F1
:1030F0006179202025302E32643A25302E32643A10
:1031000025302E32640D0000B400002040EA010397
:103110009B0703D009E008C9121F08C0042AFAD28D
:1031200003E011F8013B00F8013B521EF9D2704751
:103130000FB400B589B00BA800906A4603480A99FD
:1031400000F0ECF809B05DF814FB00005401002019
:103150002DE9FF5F1D464FF0FF3BD5E90146914643
:103160005F464FF00008A9697F1C01988847296ACB
:10317000824688470028F6D1BAF1FF3F0CD024F4EC
:10318000C064002E19DD600614D5BAF12B0F09D0EA
:10319000BAF12D0F0ED103E0584604B0BDE8F09F00
:1031A00044F48064A9697F1C01988847761E824692
:1031B000002E02DDBAF1300F03D0B9F1000F26D096
:1031C00032E0A969761E44F400747F1C0198884798
:1031D0008246002E05DDBAF1780F06D0BAF1580FFD
:1031E00003D0B9F1000F10D01EE0B9F1000F02D0EA
:1031F000B9F1100F18D1A969761E24F400747F1C50
:10320000019888478246102002E0082000E00A204A
:10321000814609E008FB0908A969761E44F4007498
:103220007F1C019888478246002E05DD494650469E
:1032300000F065F80028EDDAE96901988847A005F3
:1032400002D46FF00100A8E7E00725D1600613D58E
:10325000600502D5C8F1000000E0404629680A1D5B
:103260002A600968220501D5087015E0220701D5FA
:10327000088011E008600FE02868011D29600068DF
:10328000210502D580F8008006E0210702D5A0F8CC
:10329000008001E0C0F8008038467EE72DE9F05F4D
:1032A0000546002092469B468846064681464024B5
:1032B0001BE0284641464746224600F070F8534638
:1032C0005A46C01A914110D311461846224600F0C2
:1032D00057F82D1A67EB01084F46224601200021BE
:1032E00000F04EF817EB00094E41201EA4F1010436
:1032F000DFDC484631462A464346BDE8F09F3A287F
:1033000000D2303820F02002412A01D3A2F1370048
:10331000884201D34FF0FF3070470000024B9361A9
:10332000024BD36100F052B86319000871330008F2
:10333000064C074D06E0E06840F0010394E8070002
:1033400098471034AC42F6D3FCF7F6FE304600083E
:1033500050460008094910B508784C1C18B1401EA9
:103360000870205C10BD00210720ABBE207010BD8E
:1033700002490878421C0A70704700005C01002076
:10338000202A04DB203A00FA02F100207047914025
:10339000C2F1200320FA03F3194390407047202A1A
:1033A00004DB203A21FA02F00021704721FA02F3EF
:1033B000D040C2F1200291400843194670470000F6
:1033C000026811441378016018467047D1600449BF
:1033D00051610449116200211161114600F00AB8DF
:1033E000C1330008E9330008C0B24FF4F05100F0D7
:1033F00097B900002DE9F34F8BB04FF0000801F1B1
:103400000C000C464FF0010B46460DF1080A0190E6
:10341000626901210198904705002DD0252D2CD0FF
:10342000216A8847C0B16269012101989047216AE9
:1034300088470028F7D1411E62690198904700E053
:10344000761CA1690B988847216A88470028F7D124
:10345000E1690B988847DBE7A1690B988847074625
:10346000A84201D1761CD3E7E1690B9888477F1CFD
:1034700002D1B8F1000F6FD046E1002762693D46E6
:103480003946019890472A2804D1626901210198A0
:1034900090470125DFF884926269012101989047E5
:1034A000A0F130010A290AD24F45E5DC07EB87017C
:1034B00000EB4107303FDFD445F01005ECE7E906AB
:1034C00001D46FF000476C280AD04C2814D068282B
:1034D00015D06A280DD074281CD07A281AD01DE087
:1034E00062690121019890476C2802D045F00405DB
:1034F00014E045F002050DE045F020050AE06269A0
:10350000012101989047682802D045F0080505E0A0
:1035100045F400656269012101989047C4E90157AB
:1035200065283DD019DC58287AD00CDC452837D0E6
:1035300004DC252826D0412831D131E046282FD07F
:1035400047282CD12CE05B2877D0612828D063282D
:103550007CD0642823D15AE0D0E06F2848D008DC22
:1035600066281DD067281BD0692821D06E2816D167
:1035700027E0702845D0732868D0752847D0782870
:103580000DD14DE0A1690B988847054625283FF4E9
:1035900069AFE1690B9888476D1C3FF46AAFB3E0EF
:1035A00023466A466FF001000B99AFF300809EE05E
:1035B00045F040006060A80723464FF0000236D473
:1035C0003EE0E8077FF447AF2068011D21600068F6
:1035D000290501D506701BE7290701D5068017E7E5
:1035E000A90703D5F117C0E9006111E706600FE7ED
:1035F00045F040006060A80723464FF0080216D44B
:103600001EE040F60E0125EA0100606016E045F07C
:1036100040006060A80723464FF00A0207D40FE07D
:1036200045F040006060A80708D5234610226FF0DF
:1036300001000B99AFF3008059E007E02346102208
:103640006FF001000B99FFF783FD50E04FF0000988
:103650004F464B46632802D05B2806D040E0E80680
:1036600001D40120A06001273AE06269012101989C
:1036700090475E2805D14FF00109626949460198DB
:103680009047216939B900210A46534643F8212061
:10369000491C0829FADBB0B3216969B9C11700EBED
:1036A000D16253110AEB830122F01F02821A01201A
:1036B0000B68904003430B606269012101989047B9
:1036C0005D28E8D1B9F1000F09D00020514651F82A
:1036D0002020D24341F82020401C0828F7DB02AB11
:1036E000224600976FF001000B99AFF3008000288D
:1036F0000CDA401C08D1BBF1000F05D04FF0FF30B1
:103700000DB0BDE8F08FFFE74046F9E7E90701D1CA
:1037100008F1010806444FF0000B79E6CCCCCC0C44
:103720007F2801D9002208E0064A02EB5002C007B8
:10373000127800D1120902F00F02012090400840D7
:10374000704700007443000870B58C1810F8015BD6
:1037500015F0070301D110F8013B2A1106D110F82A
:10376000012B03E010F8016B01F8016B5B1EF9D12E
:103770002B0705D40023521E0DD401F8013BFAE7B4
:1037800010F8013BCB1A921C03E013F8015B01F81F
:10379000015B521EF9D5A142D8D3002070BD0000B4
:1037A0000FB4054B10B503A9044A029800F018F8AD
:1037B00010BC5DF814FB00004319000858010020FC
:1037C00002E008C8121F08C1002AFAD170477047EA
:1037D000002001E001C1121F002AFBD17047000048
:1037E0002DE9FF4F8DB00F460546002606E025283F
:1037F0000BD0DDE90F1290476D1C761C287800284D
:10380000F5D111B03046BDE8F08F0024A246A146A4
:103810000122EC4900E0044315F8013F203B02FA85
:1038200003F00842F7D128782A2810D06FF02F0231
:103830002878A0F13001092914D80AEB8A0102EB9B
:10384000410144F0020400EB010A6D1CF0E701CFD6
:103850005FEA000A03D544F40054CAF1000A44F0B8
:1038600002046D1C28782E2817D115F8010F44F09A
:1038700004042A280ED06FF02F022878A0F130011E
:1038800009290AD809EB890102EB410100EB010982
:103890006D1CF2E757F8049B6D1C28786C280FD03C
:1038A00006DC4C2817D068280DD06A2814D104E013
:1038B000742810D07A280FD10DE044F400140AE0E7
:1038C00044F4801401E044F440146978814202D148
:1038D00004F580146D1C6D1C2A786E2A1FD00CDC38
:1038E000632A31D004DC002A8BD0582A11D1A3E0FE
:1038F000642A68D0692A0CD165E0732A2ED004DCD2
:103900006F2A73D0702A04D19BE0752A6FD0782A71
:103910006ED01046DDE90F129047761C50E1C4F3DB
:103920000250022806D0032809D0042801CF09D06C
:10393000066045E101CFF117C0E9006140E101CF28
:1039400006803DE106703BE117F8040B8DF800009E
:1039500000208DF80100EB46012003E057F804BB7E
:103960004FF0FF3061074FF0000102D40DE008F185
:103970000101884649450FDA8045F8DB1BF808103D
:103980000029F4D108E008F1010188468142FADB00
:103990001BF808100029F6D1DDE90F23AAEB080077
:1039A0008146214600F036F9304400EB080604E079
:1039B000DDE90F121BF8010B9047B8F10108F7D2AF
:1039C00021464846F7E00A21C4F302534FF0000BAA
:1039D0000891022B04D001CFC117032B09D00AE0B4
:1039E000FF1D27F00707F7E8020108E032E01FE0BB
:1039F00020E000B2C117042B01D140B2C117031E51
:103A000071F1000307DA4FF0000CD0EB0C006CEB07
:103A100001012D2302E0230504D52B238DF824304A
:103A2000012303E0E30701D02023F7E7984658E09D
:103A30000A2110E010210EE010204FF0000B08903A
:103A40000CE010214FF0000B44F004044FF0080983
:103A5000089103E008214FF0000B0891C4F30253D2
:103A6000022B04D001CF0021032B06D006E0FF1D5E
:103A700027F00707F7E8020103E080B2042B00D12A
:103A8000C0B24FF0000823072BD5702A07D0DDF80D
:103A900020C08CF0100C5CEA0B0C05D00EE040232B
:103AA0008DF82430012308E050EA010306D03023CA
:103AB0008DF824308DF8252002239846DDF820C0AB
:103AC0008CF0080C5CEA0B0C0BD150EA010301D11D
:103AD000630706D530238DF824304FF00108A9F193
:103AE0000109582A04D038A20B9208AA0A920BE0C6
:103AF0003AA2F9E75B46089AFFF7D0FB0B9B9B5C69
:103B00000A9A521E0A92137050EA0102F2D10A98E0
:103B1000ADEB000000F1200B600702D524F48034E7
:103B200001E04FF00109D94502DDA9EB0B0000E0EF
:103B3000002000EB0B0141440890AAEB010AE003CE
:103B400006D4DDE90F232146504600F063F8064411
:103B50004FF0000908E009A911F80900DDE90F128A
:103B6000904709F10109761CC145F4DBE0030CD54F
:103B7000DDE90F232146504600F04CF8064404E0EE
:103B8000DDE90F1230209047761C0899481E0890F6
:103B90000029F5DC08E00A980A990078491C0A9186
:103BA000DDE90F129047761CBBF10001ABF1010B70
:103BB000F1DC21465046DDE90F2300F019F80644F8
:103BC0006D1C1BE60928010030313233343536379D
:103BD0003839616263646566000000003031323359
:103BE00034353637383941424344454600000000F9
:103BF0002DE9F041044600251E461746880404D4EA
:103C000005E039462020B0476D1C641EF9D52846D2
:103C1000BDE8F0812DE9F041044600251E4690469E
:103C2000C80301D5302700E02027880404D505E02B
:103C300041463846B0476D1C641EF9D52846BDE89C
:103C4000F08100060AFE0AC600E000F000F800005D
:103C500000000000FE7DBBC7EFEFEFEFEFEFEFC717
:103C6000BB7DFE000000000000000000000000001E
:103C70000000000000000000000000000000000044
:103C80000000000000000000000000000000000034
:103C90000000000000000000000000000000000024
:103CA00000080CFEFE0C082060FEFE6020000000F4
:103CB0007848FE82BABA82BABA82BABA82BABA82EC
:103CC000FE000000000000000000000000000000F6
:103CD00000000000000101010101010101010101D9
:103CE00001010000000000000000000000000000D2
:103CF00000000000000000000000000000000000C4
:103D000000000000000000000000000000000000B3
:103D100000000000000000000000000000000000A3
:103D20000000000000000000000000000000000093
:103D30000000000000000000000000000000000083
:103D40000000000000000000000000000000000073
:103D50000000000000000000000000000000000063
:103D6000FEFF030303030303030303FFFF0000FE3F
:103D7000FF030303030303030303FFFE000000002C
:103D8000C0C0C000000000FEFF03030303030303E1
:103D90000303FFFE0000FEFF03030303030303030B
:103DA00003FFFE0000000000000000000000000013
:103DB0000000000000000000000000000000000003
:103DC00000000000000000000000000000000000F3
:103DD00000000000000000000000000000000000E3
:103DE000FFFF000000000000000000FFFF0000FFD8
:103DF000FF0C0C0C0C0C0C0C0C0CFFFF000000005A
:103E0000E1E1E100000000FFFF0000000000000011
:103E10000000FFFF0000FFFF0C0C0C0C0C0C0C0C46
:103E20000CFFFF0000000000000000000000000088
:103E30000000000000000000000000000000000082
:103E40000000000000000000000000000000000072
:103E50000000000000000000000000000000000062
:103E60000F1F1818181818181818181F0F00000F0F
:103E70001F1818181818181818181F0F000000001D
:103E8000000000000000000F1F181818181818185C
:103E900018181F0F00000F1F1818181818181818D6
:103EA000181F0F00000000000000000000000000CC
:103EB0000000000000000000000000000000000002
:103EC00000000000000000000000000000000000F2
:103ED00000000000000000000000000000000000E2
:103EE00000000000000000E2928A8600007C8282CE
:103EF000827C00FE008292AAC60000C0C0007C82C4
:103F000082827C0000020202FE0000C0C0007C82AF
:103F100082827C0000FE0000000000000000000023
:103F20000000000000000000000000000000000091
:103F30000000000000000000000000000000000081
:103F400000000024A42E24E4242EA424000000F861
:103F50004A4C48F8484C4AF80000000000000000B5
:103F60000000000000000000000000000000000051
:103F70000000000000000000000000000000000041
:103F80000000000000000000000000000000000031
:103F90000000000000000000000000000000000021
:103FA0000000000000000000000000000000C02031
:103FB0001010101020C00000C0201010101020C0E1
:103FC000000000120A07027F02070A120000000B1D
:103FD0000A0A0A7F0A0A0A0B00000000000000001B
:103FE00000000000000000000000000000000000D1
:103FF00000000000000000000000000000000000C1
:1040000000000000000000000000000000000000B0
:1040100000000000000000000000000000000000A0
:1040200000000000000000000000000000001F2051
:1040300040404050205F80001F2040404050205FA3
:10404000800000000000000000000000005F000091
:104050000000000007000700000000147F147F1418
:10406000000000242E7B2A12000000231308646243
:1040700000000036495620500000000004030100F3
:10408000000000001C2241000000000041221C0032
:1040900000000022147F142200000008087F080896
:1040A0000000004030100000000000080808080868
:1040B0000000000060600000000000201008040202
:1040C0000000003E5149453E00000000427F400094
:1040D00000000062514949460000002141494D332A
:1040E0000000001814127F100000002745454539D4
:1040F0000000003C4A4949310000000171090503F4
:104100000000003649494936000000464949291E49
:104110000000000036360000000000403636000087
:1041200000000008142241000000001414141414AC
:10413000000000004122140800000002015905029D
:104140000000003E415D555E0000007C1211127CB3
:104150000000007F494949360000003E41414122AC
:104160000000007F4141413E0000007F4949494134
:104170000000007F090909010000003E4151517211
:104180000000007F0808087F00000000417F410018
:104190000000002040413F010000007F0814224140
:1041A0000000007F404040400000007F020C027F82
:1041B0000000007F0408107F0000003E4141413EA6
:1041C0000000007F090909060000003E4151215E00
:1041D0000000007F0919294600000026494949329C
:1041E00000000001017F01010000003F4040403F0E
:1041F0000000001F2040201F0000007F2018207FAB
:104200000000006314081463000000030478040332
:1042100000000061514945430000007F7F4141009B
:1042200000000002040810200000000041417F7FD0
:1042300000000004027F0204000000081C2A080895
:104240000000000000010204000000245454384023
:104250000000007F284444380000003844444408EB
:10426000000000384444287F0000003854545408AB
:10427000000000087E09090200000098A4A4A478A8
:104280000000007F080404780000000000790000AE
:1042900000000000808879000000007F1028444062
:1042A00000000000417F400000000078047804789E
:1042B00000000004780404780000003844444438C6
:1042C000000000FC2424241800000018242424FCEE
:1042D00000000004780404080000004854545424EA
:1042E000000000043F4444240000003C40403C40A7
:1042F0000000001C2040201C0000003C403C403CD2
:1043000000000044281028440000009CA0A0907CDD
:104310000000004464544C44000000083641000092
:104320000000000000770000000000000041360897
:104330000000000804081008000000552A552A55FE
:1043400000000000000000001F0000003B00000013
:104350005A0000007800000097000000B50000003F
:10436000D4000000F3000000110100003001000043
:104370004E010000DDDDDDDDDCBBBBDDDDDDDDDDD7
:10438000DDDDDDDD9888888888888888777777778D
:104390007788888885555556666666666666666659
:1043A0006668888883333332222222222222222204
:1043B0002228888D0D0A2020C7EBCAE4C8EBD4C29E
:1043C000B7DD28506C6561736520536574204D6FAF
:1043D0006E746873293AB7B6CEA75B317E31325D11
:1043E000A3ACCAE4C8EBD7D6B7FBBAF3C7EBBCD3D0
:1043F000BBD8B3B53A0000000D0A2020C7EBCAE4D1
:10440000C8EBCAB1D6D328506C656173652053657B
:104410007420486F757273292CB7B6CEA75B307EB7
:1044200032335DA3ACCAE4C8EBD7D6B7FBBAF3C747
:10443000EBBCD3BBD8B3B53A000000000D0A202076
:10444000C7EBCAE4C8EBC4EAB7DD28506C656173FA
:104450006520536574205965617273292CB7B6CEF7
:10446000A75B313937307E323033385DA3ACCAE4D4
:10447000C8EBD7D6B7FBBAF3C7EBBCD3BBD8B3B541
:104480003A0000000D0A2020C7EBCAE4C8EBC3EBDA
:10449000D6D328506C6561736520536574205365CD
:1044A000636F6E6473292CB7B6CEA75B307E353947
:1044B0005DA3ACCAE4C8EBD7D6B7FBBAF3C7EBBC75
:1044C000D3BBD8B3B53A00000D0A2020C7EBCAE42D
:1044D000C8EBB7D6D6D328506C6561736520536599
:1044E00074204D696E75746573292CB7B6CEA75BC1
:1044F000307E35395DA3ACCAE4C8EBD7D6B7FBBA7A
:10450000F3C7EBBCD3BBD8B3B53A00000D0A2020EB
:10451000C7EBCAE4C8EBC8D5C6DA28506C6561732E
:104520006520536574204D6F6E746873292CB7B67F
:10453000CEA75B317E25645DA3ACCAE4C8EBD7D6B9
:10454000B7FBBAF3C7EBBCD3BBD8B3B53A00000096
:10455000536E616B65000000486F72736500000068
:1045600050696700446F6700447261676F6E0000B6
:104570005469676572000000526F6F737465720052
:1045800052617400476F6174000000005261626202
:10459000697400004F780000467269646179000018
:1045A0004D6F6E646179000053756E64617900002F
:1045B0005361747572646179000000005765646E20
:1045C00065736461790000005475657364617900F6
:1045D0005468757273646179000000004D6F6E6BF2
:1045E00065790000BBA20000C5A30000BCA60000C6
:1045F000B9B70000D2BB0000CDC30000CBC400009F
:10460000C8D50000C9DF0000CEE50000C2ED000003
:10461000D6ED0000BAEF0000D1F20000CAF30000AE
:10462000C1F90000C1FA0000C8FD0000B6FE00009C
:1046300050460008000000206001000048370008D4
:10464000184700086001002020060000D03700084D
:104650001184A24A04680901020304060708090C30
:104660006910B01F0204060868656C6C6F20776FD4
:10467000726C642073746D33322077323571363446
:104680000D0A4925061432332E38305A010473D0EE
:104690000762A0321F5A1C08DA1E080912145112B0
:1046A000461408F4451B082C081A28041AFC0C1A96
:1046B00008081A20041A10041A1C041AE8141AE430
:1046C000041AF8041A24101A04041A0C041A180400
:1046D0001A14041AEC181AF0041AA8041AA0041ADE
:1046E000C8041ABC041AD0041A98041AB0041A6038
:1046F000041A80041A94041A70041A8C041A6804A8
:104700001A50041A58041A84041ADC041A78041A79
:08471000640429E0C10000006F
:0400000508000131BD
:00000001FF
