:020000040800F2
:1000000088060020450100083D1400083F14000840
:1000100043140008471400084B14000800000000B7
:100020000000000000000000000000004F14000865
:100030005114000800000000531400085514000873
:100040005F0100085F0100085F0100085F01000810
:100050005F0100085F0100085F0100085F01000800
:100060005F0100085F0100085F0100085F010008F0
:100070005F0100085F0100085F0100085F010008E0
:100080005F0100085F0100085F0100085F010008D0
:100090005F0100085F0100085F0100085F010008C0
:1000A0005F0100085F0100085F0100085F010008B0
:1000B0005F0100085F0100085F0100085F010008A0
:1000C0005F0100085F0100085F0100085F01000890
:1000D0005F0100085F0100085F0100085F01000880
:1000E0005F0100085F0100085F0100085F01000870
:1000F0005F0100085F0100085F0100085F01000860
:100100005F0100085F0100085F0100085F0100084F
:100110005F0100085F0100085F0100085F0100083F
:100120005F0100085F0100085F0100085F0100082F
:10013000DFF80CD002F010FA0048004793110008D5
:10014000880600200648804706480047FEE7FEE78D
:10015000FEE7FEE7FEE7FEE7FEE7FEE7FEE7FEE777
:1001600047020008310100080CB500200190009002
:100170006C48006840F480306A49086000BF6948F4
:10018000006800F4003000900198401C0190009835
:1001900018B90198B0F5A06FF1D16248006800F479
:1001A000003010B10120009001E000200090009884
:1001B000012843D15C48006840F010005A490860AB
:1001C0000846006820F0030008600846006840F018
:1001D0000200086053484068524948600846406839
:1001E00048600846406840F48060486008464068BF
:1001F00020F47C1048600846406840F4E8104860ED
:100200000846006840F08070086000BF45480068FC
:1002100000F000700028F9D04248406820F0030048
:10022000404948600846406840F00200486000BF0E
:100230003C48406800F00C000828F9D10CBD10B50E
:10024000FFF792FF10BD10B53648006840F001007E
:1002500034490860084640683449084031494860DC
:1002600008460068324908402E4908600846006880
:1002700020F4802008600846406820F4FE004860B2
:100280004FF41F008860FFF7DAFF4FF00060294944
:10029000086010BD10B5002100200022214B5B68D2
:1002A00003F00C0121B1042906D0082928D107E068
:1002B000214B224C236027E01F4B204C236023E07E
:1002C000184B5B6803F47010164B5B6803F48032C4
:1002D000022303EB904022B9194B4343174C236090
:1002E0000DE0104B5B6803F4003323B1144B434320
:1002F000124C236003E0104B4343104C236003E097
:100300000D4B0E4C236000BF00BF064B5B68C3F370
:1003100003130C4CE15C094B1B68CB40074C23607A
:1003200010BD000000100240002002400000FFF855
:10033000FFFFF6FE08ED00E000127A00000000204A
:1003400000093D000400002010B50446CC4884425A
:1003500008D10121042000F02DFB0021042000F031
:1003600029FB46E0C748844208D10121082000F05B
:1003700021FB0021082000F01DFB3AE0C248844226
:1003800008D10121102000F015FB0021102000F001
:1003900011FB2EE0BD48844208D10121202000F04D
:1003A00009FB0021202000F005FB22E0B848844230
:1003B00008D10121402000F0FDFA0021402000F08A
:1003C000F9FA16E0B348844208D10121802000F0F8
:1003D000F1FA0021802000F0EDFA0AE0AE488442F4
:1003E00007D10121801500F0E5FA0021A01500F0E9
:1003F000E1FA10BD10B50121084600F0DBFA00213A
:10040000012000F0D7FA10BD2DE9F0410246002589
:100410000026002000230024002791F803C00CF0E0
:100420000F0591F803C00CF0100CBCF1000F03D0C5
:1004300091F802C04CEA050591F800C0BCF1000F2C
:1004400031D0146800202BE04FF0010C0CFA00F3BF
:10045000B1F800C00CEA03069E4220D183004FF0A1
:100460000F0C0CFA03F7BC4305FA03FC4CEA040436
:1004700091F803C0BCF1280F06D14FF0010C0CFA23
:1004800000FCC2F814C00AE091F803C0BCF1480FA8
:1004900005D14FF0010C0CFA00FCC2F810C0401C52
:1004A0000828D1D31460B1F800C0BCF1FF0F34DDCF
:1004B000546800202EE000F1080C4FF0010808FA03
:1004C0000CF3B1F800C00CEA03069E4221D1830070
:1004D0004FF00F0C0CFA03F7BC4305FA03FC4CEA8F
:1004E000040491F803C0BCF1280F05D100F1080CF9
:1004F00008FA0CF8C2F8148091F803C0BCF1480F58
:1005000007D100F1080C4FF0010808FA0CF8C2F806
:100510001080401C0828CED35460BDE8F0814FF60F
:10052000FF710180022181700421C1707047024671
:10053000002093680B400BB1012000E000207047C1
:100540000146886880B2704702460020D3680B409D
:100550000BB1012000E0002070470146C86880B25E
:10056000704701617047416170470AB1016100E065
:1005700041617047C16070474FF480320A43826125
:100580008161826182698269704702460020434B23
:1005900018684FF68073184040EA021008433F4B3A
:1005A000186070473E49C8617047F0B50A4600239D
:1005B00000240021002500F00046B6F1004F02D1D2
:1005C000364EF16901E0354E7168C0F3034583B2E0
:1005D00000F44016B6F5401F08D121F070612F4E8F
:1005E000766826F070662D4F7E6012E000F480166B
:1005F000B6F5801F06D1032606FA05F4A14341F0A3
:10060000706106E0460D360103FA06F6B14341F08B
:10061000706122B1460D360103FA06F6314300F04F
:100620000046B6F1004F02D11C4EF16101E01B4EB5
:100630007160F0BD30B500228B071C0F0F2303FA49
:1006400004F2164B08338C1053F824309343134CA8
:1006500008348D1044F8253023468C1053F824308C
:100660008C07240F00FA04F423430C4C08348D103B
:1006700044F8253030BD0A49DC310860704700007D
:1006800000080140000C014000100140001401402E
:1006900000180140001C0140002001400000014002
:1006A00000002042DF48006840F00100DD4908609A
:1006B00008464068DC490840DA4948600846006856
:1006C000DA490840D74908600846006820F48020CD
:1006D00008600846406820F4FE0048604FF41F00A0
:1006E00088607047CF49096821F48031CD4A116094
:1006F0001146096821F480211160B0F5803F03D0D4
:10070000B0F5802F0ED106E0C649096841F480316A
:10071000C44A116007E0C349096841F4A021C14AF5
:10072000116000E000BF00BF704710B50146002215
:10073000002300204A11012A02D1BA4C236806E0A6
:10074000022A02D1B74C236A01E0B64C636A01F079
:100750001F02012494401C400CB1012000E0002045
:1007600010BD38B5002000900024002500BF3120C6
:10077000FFF7DBFF05460098401C00900098B0F59D
:10078000A06F01D0002DF2D03120FFF7CEFF08B1CD
:10079000012400E00024204638BD01460020A14A83
:1007A000106820F0F80040EAC10010607047A049CE
:1007B00008607047024600209A4B586820F47C106D
:1007C00042EA01031843974B5860704798490866FE
:1007D000704701460020934A506820F00300084308
:1007E000506070478F48406800F00C007047014629
:1007F00000208C4A506820F0F00008435060704799
:1008000001460020874A506820F4E06008435060A9
:10081000704701460020834A506820F4605040EA47
:10082000C1005060704729B17E4A527A02437D4B25
:100830005A7204E07B4A527A82437A4B5A7270476A
:100840007B49D8310860704701460020754A5068DE
:1008500020F440400843506070470021714A203224
:100860001170704A82F82010012802D004280AD1A1
:1008700004E001216B4A2032117005E00521694A2C
:100880002032117000E000BF00BF70476949086066
:1008900070476449096A0143624A116270476549B9
:1008A00044390860704730B500210022002400233D
:1008B0005C4D6D6805F00C0121B1042905D00829B3
:1008C00023D105E05C4D056022E05B4D05601FE033
:1008D000544D6D6805F47012524D6D6805F4803406
:1008E000022505EB92421CB9544D554305600BE0BF
:1008F0004C4D6D6805F400351DB1504D55430560F4
:1009000002E04D4D5543056002E04B4D056000BFD0
:1009100000BF444D6D6805F0F0010909484D6B5C5E
:100920000568DD4045603F4D6D6805F4E061090AEA
:10093000434D6B5C4568DD4085603A4D6D6805F45C
:100940006051C90A3E4D6B5C4568DD40C560354D60
:100950006D6805F44041890B3A4D6B5CC568B5FB89
:10096000F3F5056130BD29B12E4A526902432D4B82
:100970005A6104E02B4A526982432A4B5A617047FC
:1009800029B1284A92690243264B9A6104E0254A1C
:1009900092698243234B9A61704729B1214AD269F7
:1009A0000243204BDA6104E01E4AD26982431D4BA8
:1009B000DA61704729B11B4AD2680243194BDA60E9
:1009C00004E0184AD2688243164BDA60704729B1B6
:1009D000144A12690243134B1A6104E0114A126966
:1009E0008243104B1A6170471249403908607047C2
:1009F0000F49C86470470B49C87170470948406A7D
:100A000040F0807007494862704701460020054A5F
:100A100092680A400AB1012000E0002070470149B5
:100A200088727047001002400000FFF8FFFFF6FEDA
:100A3000000042428004424200127A0000093D0058
:100A4000140000202400002010B50446BE48844253
:100A500008D101218014FFF7ADFF0021A014FFF79A
:100A6000A9FF16E0B948844208D101210014FFF71C
:100A7000AEFF00212014FFF7AAFF0AE0B448844229
:100A800007D10121C013FFF7A2FF0021E013FFF7F8
:100A90009EFF10BD10B50022028802F441520B885F
:100AA0004C8823438C882343CC8823430C892343DD
:100AB0004C8923438C892343CC8923431A430280E6
:100AC000838B4FF2FF74234083830B8A038210BD14
:100AD0002DE9F04F85B005460C464FF0000902277E
:100AE0004FF000084FF0010B0026B246A88B4FF2E2
:100AF00040010840A88302202884B5F81C90A06813
:100B0000022801D100BF38E0A08810B94FF0010BD6
:100B100001E04FF0020B8D48854200D100E000BF9C
:100B20006846FFF7C0FEDDF800A0E088B0F5007F62
:100B30000AD14FEA1A2000EB80004000A168B0FB08
:100B4000F1F0401D86B20BE04FEA4B10BAFBF0F01B
:100B500000EB80004000A168B0FBF1F0401D86B2C0
:100B60000A20B6FBF0F606F00108A6EB0800C0F379
:100B70004F074FF6FF7000EA0828022F01DBFF2F16
:100B800002DD02274FF00008E08840EA0800384301
:100B90002884A088A18908436188084321880843E4
:100BA00040F4006040EA0909A5F81C9005B0BDE8D2
:100BB000F08F0021018041808180C18001814181CD
:100BC0008181C1810721018270470021018041801C
:100BD0008180C1800221816000218181704721B123
:100BE000028842F04002028004E002884FF6BF73A0
:100BF0001A400280704721B1828B42F48062828366
:100C000004E0828B4FF6FF331A408283704730B581
:100C1000002400230C110125A540ABB21AB1858830
:100C20001D43858002E085889D43858030BD1AB1D3
:100C300083880B43838002E083888B4383807047E3
:100C4000818170470146888970474FF6FF62914263
:100C500004D0028842F48072028004E002884FF6D9
:100C6000FF631A400280704721B1828842F004027B
:100C7000828004E082884FF6FB731A4082807047BE
:100C800002884FF2FF731A40028002880A430280F2
:100C90007047018841F480510180704721B102887A
:100CA00042F40052028004E002884DF6FF731A40BD
:100CB0000280704702460020012901D0108B00E01D
:100CC000908A70470146088A7047B1F5804F04D179
:100CD000028842F48042028004E002884BF6FF73EF
:100CE0001A40028070470246002013890B400BB166
:100CF000012000E000207047CA4302817047F0B530
:100D00000246002000240023002501F00F070126E1
:100D1000BE40B4B20B1101269E40B3B2968806EADB
:100D200003051689264016B10DB1012000E0002010
:100D3000F0BD10B5002201F00F040123A3409AB2C8
:100D4000D343038110BD0000003001400038004053
:100D5000003C004010B50446FB48844209D1012103
:100D60008803FFF727FE00214FF48040FFF722FEA3
:100D700032E0F648844209D101214804FFF727FEFA
:100D800000214FF40030FFF722FE25E0F0488442B6
:100D900009D101218804FFF71AFE00214FF48020B9
:100DA000FFF715FE18E0EB48844209D10121C80481
:100DB000FFF70DFE00214FF40020FFF708FE0BE0C7
:100DC000E548844208D101210805FFF700FE002113
:100DD0004FF48010FFF7FBFD10BD2DE9F04786B002
:100DE00005460E460024A24600BFA1460027B08952
:100DF00000B100BF2F462C8A4CF6FF700440F088EB
:100E000004432C82AC894EF6F3100440B08831893B
:100E10000843718908430443AC81AC8A4FF6FF4014
:100E20000440B0890443AC8201A8FFF73CFDC648EA
:100E3000874202D1DDF810A001E0DDF80CA0A889FE
:100E400000F4004040B10AEBCA0000EB0A10316820
:100E50004900B0FBF1F807E00AEBCA0000EB0A100A
:100E600031688900B0FBF1F86420B8FBF0F00401B0
:100E70002009642101FB1089A88900F4004040B1D9
:100E8000322000EBC900B0FBF1F000F00700044392
:100E900008E0322000EB09106421B0FBF1F000F013
:100EA0000F0004432C8106B0BDE8F0874FF41651C3
:100EB000016000218180C18001810C2141810021DC
:100EC0008181704710B502460020108A4FF2FF035F
:100ED00018400B884C8823438C882343CC882343B9
:100EE0001843108210BD0021018041808180C180A3
:100EF000704721B1828942F40052828104E08289E4
:100F00004DF6FF731A4082817047F0B50346002406
:100F100000260025002040F66A17B94200D100BF24
:100F20001846C1F3421401F01F06012707FA06F51F
:100F3000012C01D10C3004E0022C01D1103000E072
:100F400014301AB107682F43076002E00768AF4307
:100F50000760F0BD1AB1838A0B43838202E0838A63
:100F60008B4383827047028A4FF6F0731A400282E5
:100F7000028A0A430282704782894FF2FF731A4045
:100F8000828182890A438281704721B1828942F03D
:100F90000202828104E082894FF6FD731A40828149
:100FA0007047028A4FF6DF731A400282028A0A43B0
:100FB0000282704721B1028A42F48042028204E038
:100FC000028A4BF6FF731A4002827047C1F308028F
:100FD0008280704701468888C0F308007047818985
:100FE00041F0010181817047028BD2B20283028BF2
:100FF00042EA012202837047028B02F47F4202839D
:10100000028B0A430283704721B1828A42F0200298
:10101000828204E0828A4FF6DF731A408282704730
:1010200021B1828A42F01002828204E0828A4FF665
:10103000EF731A408282704721B1828A42F008021F
:10104000828204E0828A4FF6F7731A4082827047E8
:1010500021B1828942F40042828103E08289C2F395
:101060000E028281704721B1828A42F4006282823C
:1010700004E0828A4FF2FF731A4082827047828AAC
:101080004FF6FB731A408282828A0A43828270473B
:1010900021B1828A42F00202828204E0828A4FF603
:1010A000FD731A408282704702460020B1F5007F2E
:1010B00000D100BF13880B400BB1012000E00020DD
:1010C000704701F40072B2F5007F00D100BFCA433F
:1010D0000280704770B502460024002300250020DE
:1010E00040F66A16B14200D100BFC1F3421501F0CB
:1010F0001F03012606FA03F3012D02D1968933401E
:1011000006E0022D02D1168A334001E0968A334070
:101110000C12012606FA04F41688344013B10CB1FF
:10112000012000E0002070BD10B50022002340F631
:101130006A14A14200D100BF0A1201249440A3B254
:10114000DC43048010BD0000003801400044004032
:1011500000480040004C00400050004010B50346DD
:1011600007E018780C78A04201D0002010BD5B1C6D
:10117000491C1000A2F10104A2B2F2D10120F5E74E
:1011800001B502E00098401E009000980028F9D1B7
:1011900008BD0EB500F0C0F900F060F943A001F001
:1011A0000DFA01F072F800F0ABFD002000F08AFEAD
:1011B000494A0021084600F0F7FE01F041F901F02C
:1011C0009FF81CE001A801F0EBF801280CD19DF874
:1011D000070000909DF806309DF805209DF804104A
:1011E0003EA001F0EBF902E04BA001F0E7F94F4817
:1011F00001F05BF94E480068401C4D4908604C48BE
:1012000000680A28DED300F0ABF900F0A2FB4949E0
:101210000860C820FFF7B4FF00F076FB464908607D
:10122000444802680846016844A001F0C7F94248F2
:1012300000685049884230D14FA001F0BFF900202A
:1012400000F04AFA1B220021534800F0A6FA524946
:1012500052A001F0B3F91B220021564800F02EFBEA
:10126000544955A001F0AAF91B2252494A48FFF7F8
:1012700075FF5749087008460078012806D10820F4
:101280005449486154A001F099F90CE004205149F7
:1012900048615AA001F092F905E004204D494861E7
:1012A0005FA001F08BF900BFFEE700000D0A20D51A
:1012B000E2CAC7D2BBB8F6384D62797465B4AED015
:1012C000D0666C6173682857323551363429CAB5F7
:1012D000D1E9200D0A0000004D0000200D0AB6C122
:1012E000C8A14448543131B3C9B9A6210D0A0D0A29
:1012F000CAAAB6C8CEAA25642E256420A3A5524842
:1013000020A3ACCEC2B6C8CEAA2025642E2564A1E7
:10131000E6200D0A00000000526561642044485434
:101320003131204552524F52210D0A0040420F00E8
:101330005C00002044000020480000200D0A2046E8
:101340006C617368494420697320307825582C09F2
:101350004D616E7566616374757265722044657661
:1013600069636520494420697320307825580D0A47
:10137000000000001740EF000D0A20BCECB2E2B5FF
:10138000BDB4AED0D0666C6173682057323551362B
:101390003420210D0A000000280000200D0A20D072
:1013A000B4C8EBB5C4CAFDBEDDCEAAA3BA2573206E
:1013B0000D0900006C0000200D0A20B6C1B3F6B57F
:1013C000C4CAFDBEDDCEAAA3BA2573200D0A000053
:1013D0004C000020001001400D0A20384DB4AED062
:1013E000D0666C6173682857323551363429B2E2C1
:1013F000CAD4B3C9B9A6210A0D0000000D0A2038CD
:101400004DB4AED0D0666C61736828573235513612
:101410003429B2E2CAD4CAA7B0DC210A0D00000008
:101420000D0A20BBF1C8A1B2BBB5BD205732355162
:101430003634204944210A0D00000000704700BFE7
:10144000FEE700BFFEE700BFFEE700BFFEE7704714
:101450007047704710B501F03AF810BD00B585B07F
:1014600001210420FFF78CFA01218803FFF788FA95
:101470004FF40070ADF8100018208DF81300032011
:101480008DF8120004A92248FEF7BEFF4FF48060D9
:10149000ADF8100004208DF8130004A91C48FEF7D5
:1014A000B3FF4FF4E13000900020ADF80400ADF838
:1014B0000600ADF80800ADF80C000C20ADF80A00ED
:1014C00069461448FFF789FC01211248FFF711FD16
:1014D00005B000BD70B504460D46E1B20D48FFF7FA
:1014E00075FD00BF80210B48FFF7DEFD0028F9D015
:1014F000204670BD10B5044600BF20210548FFF707
:10150000D3FD0028F9D00348FFF764FD10BD0000AB
:10151000000801400038014008B501211020FFF704
:101520002FFA0420ADF8000010208DF803000320EE
:101530008DF8020069460948FEF766FF0820ADF8FD
:10154000000069460548FEF75FFF04210348FFF7E6
:1015500008F808210148FFF704F808BD0010014011
:1015600000B587B001210803FFF70AFA0121C42062
:10157000FFF706FA1020ADF8040003208DF80600EE
:1015800010208DF8070001A9FE48FEF73DFF20203E
:10159000ADF8040018208DF8070001A9F948FEF7FE
:1015A00033FF4020ADF8040001A9F648FEF72CFFF8
:1015B0008020ADF8040001A9F248FEF725FF1021B4
:1015C000F048FEF7CEFF0020ADF808004FF482701F
:1015D000ADF80A000020ADF80C000220ADF80E00B6
:1015E0000120ADF810004002ADF812000820ADF85F
:1015F00014000020ADF816000720ADF8180002A96D
:10160000E148FFF747FA0121DF48FFF7E8FA07B0A2
:1016100000BD10B504462146DCA000F0CFFF00203D
:1016200010BD10B504464FF48050E44908600AE04C
:10163000E2490868411EE14A116020B90020FFF725
:10164000E8FFC0B210BD0221CF48FFF74CFB0028D5
:10165000EED02146CC48FFF7F3FA4FF48050D7493B
:1016600008600AE0D5490868411ED44A116020B9D3
:101670000120FFF7CEFFC0B2E4E70121C248FFF727
:1016800032FB0028EED0C048FFF7DCFAC0B2D9E741
:1016900010B500241021BB48FEF765FF0520FFF7B9
:1016A000C0FF00BFFF20FFF7BCFF044604F00100AD
:1016B0000028F7D11021B348FEF753FF10BD10B535
:1016C0001021B048FEF74FFF0620FFF7AAFF1021B8
:1016D000AC48FEF746FF10BD10B50446FFF7EFFF1C
:1016E000FFF7D6FF1021A748FEF73DFF2020FFF7A8
:1016F00098FFC4F30740FFF794FFC4F30720FFF7F8
:1017000090FFE0B2FFF78DFF10219E48FEF729FF02
:10171000FFF7BEFF10BD10B5FFF7D1FF10219948AC
:10172000FEF721FFC720FFF77CFF10219548FEF749
:1017300018FFFFF7ADFF10BD70B505460C46164605
:10174000FFF7BDFF10218F48FEF70DFF0220FFF7C6
:1017500068FFC4F30740FFF764FFC4F30720FFF7F7
:1017600060FFE0B2FFF75DFFB6F5807F04DD4FF468
:10177000807693A000F022FF03E02878FFF751FF66
:101780006D1C3000A6F101018EB2F6D110217D480A
:10179000FEF7E7FEFFF77CFF70BD2DE9F05F07461F
:1017A0000E4614464FF00008C146C2460025AB461F
:1017B00006F0FF0ACAF10000C5B22046E11704EBAB
:1017C0001161C1F30728E11704EB11610912A4EBC1
:1017D000012101F0FF09BAF1000F20D1B8F1000F8B
:1017E00005D1224631463846FFF7A6FF64E009E0FE
:1017F0004FF4807231463846FFF79EFF06F580763B
:1018000007F580775FEA0800A8F1010101F0FF0801
:10181000EED14A4631463846FFF78EFF4CE0B8F12C
:10182000000F18D1A94510DDA9EB050000F0FF0B52
:101830002A4631463846FFF77FFF2E442F445A464A
:1018400031463846FFF778FF36E0224631463846C3
:10185000FFF772FF30E0601B84B22046E11704EB13
:101860001161C1F30728E11704EB11610912A4EB20
:10187000012101F0FF092A4631463846FFF75CFF97
:101880002E442F4409E04FF4807231463846FFF76A
:1018900053FF06F5807607F580775FEA0800A8F128
:1018A000010101F0FF08EED1B9F1000F04D04A4662
:1018B00031463846FFF740FFBDE8F09F70B505465A
:1018C0000C46164610212F48FEF74DFE0320FFF769
:1018D000A8FEC4F30740FFF7A4FEC4F30720FFF7F8
:1018E000A0FEE0B2FFF79DFE04E0FF20FFF799FEA7
:1018F00028706D1C3000A6F101018EB2F5D11021C7
:101900002048FEF72EFE70BD2DE9F0410024002591
:101910000026002710211B48FEF725FE9F20FFF719
:1019200080FEFF20FFF77DFE0546FF20FFF779FED2
:101930000646FF20FFF775FE074610211148FEF707
:1019400010FE280440EA062040EA07042046BDE8CD
:10195000F08110B5002410210A48FEF704FEAB20E8
:10196000FFF75FFEFF20FFF75CFEFF20FFF759FE49
:10197000FF20FFF756FEFF20FFF753FE044610211D
:10198000004837E000080140003001403C3C2D4653
:101990004C4153482D4552524F522D3E3E205350FC
:1019A0004920B5C8B4FDB3ACCAB1216572726F727B
:1019B000436F6465203D2025640A0000600000201C
:1019C0003C3C2D464C4153482D4552524F522D3EE2
:1019D0003E205350495F464C4153485F5061676514
:1019E000577269746520746F6F206C61726765212E
:1019F0000A000000FEF7B5FD204610BD10B50446F4
:101A000010213248FEF7AFFD0320FFF70AFEC4F3B2
:101A10000740FFF706FEC4F30720FFF702FEE0B21F
:101A2000FFF7FFFD10BD10B5FF20FFF7FAFD10BD59
:101A300010B504464FF480502549086009E0244958
:101A40000868411E224A116018B90220FFF7E1FD23
:101A500010BD02211F48FFF746F90028EFD02146AC
:101A60001C48FFF7EDF84FF480501949086009E071
:101A700017490868411E164A116018B90320FFF77C
:101A8000C8FDE5E701211348FFF72DF90028EFD045
:101A90001048FFF7D7F8DBE710B510210B48FEF729
:101AA00062FDB920FFF7BDFD10210848FEF759FD82
:101AB00010BD10B510210548FEF755FDAB20FFF70E
:101AC000B0FD10210148FEF74CFD10BD000801409B
:101AD000600000200030014070B5044600F027FB94
:101AE000204600F047FB00F08CFB054600F034FB7D
:101AF00000F0B9FB284670BD10B5002406E0204672
:101B0000641CB0F5803F01D3012010BD7820FFF7A1
:101B1000E3FF0028F3D100BFF7E72DE9F0410646C7
:101B20000F46154600F003FB782000F023FB00F081
:101B300068FB00B125E0F8B200F01CFB00F061FB8F
:101B400000B11EE000F0F3FA792000F013FB00F082
:101B500058FB00B115E000240CE000F033FB3055D9
:101B6000681EA04202D000F068FB01E000F07BFBA1
:101B7000601C84B2AC42F0DB00F0EEFA0120BDE85C
:101B8000F08100F0E9FA0020F9E72DE9F047074677
:101B900088469146464600242CE014B106F0070022
:101BA000E8B900F0D9FA00250AE000F0C0FA782080
:101BB00000F0E0FA00F025FB00B904E0681C85B2F3
:101BC000B5F57A7FF1DB00BFB5F57A7F00D11DE076
:101BD000F0B200F0CFFA00F014FB00B116E0385D6F
:101BE00000F0C8FA00F00DFB00B10FE0701C86B2E7
:101BF000601C84B24C45D0DB00F0AEFAFFF77CFFEE
:101C0000012800D102E00120BDE8F08700F0A4FA2D
:101C10000020F9E710B5C0B0002404E0FF200DF863
:101C20000400601C84B2FF2CF8DD4FF480720021A8
:101C30006846FFF7AAFF20B9EDA000F0BFFC40B056
:101C400010BDF0A000F0BAFC00BFF8E710B5782096
:101C5000FFF742FF012804D1EFA000F0AFFC002005
:101C600010BD002403E0F2490C55601C84B2FF2C27
:101C7000F9DD4FF480720021ED48FFF786FF20B9AF
:101C8000ECA000F09BFC0020EAE7EFA000F096FC3F
:101C90004FF480720021F148FFF73FFF20B9F0A018
:101CA00000F08CFC0020DBE7F2A000F087FC0024B1
:101CB0001DE0EA48005DDE49095D884209D0E74839
:101CC000015DF3A000F07AFCF3A000F077FC0020A7
:101CD000C6E7E248015DF9A000F070FC04F00F00D7
:101CE0000F2802D1C6A000F069FC601C84B2FF2C52
:101CF000DFDDF4A000F062FC0120B1E7704770471F
:101D000010B5AE20CA49087001220021C848FFF76B
:101D10003CFF2020C649087001220021C448FFF77B
:101D200034FF1020C249087001220021C048FFF78B
:101D30002CFFB020BE49087001220021BC48FFF7EB
:101D400024FFC820BA49087001220021B848FFF7D3
:101D50001CFF0020B649087001220021B448FFF79B
:101D600014FF1020B249087001220021B048FFF78B
:101D70000CFF4020AE49087001220021AC48FFF75B
:101D800004FF8120AA49087001220021A848FFF71A
:101D9000FCFE7F20A649087001220021A448FFF71D
:101DA000F4FEA120A249087001220021A048FFF7FB
:101DB000ECFEA6209E490870012200219C48FFF7F6
:101DC000E4FEA8209A490870012200219848FFF7F4
:101DD000DCFE3F2096490870012200219448FFF75D
:101DE000D4FEA42092490870012200219048FFF7F8
:101DF000CCFED3208E490870012200218C48FFF7C9
:101E0000C4FE00208A490870012200218848FFF79B
:101E1000BCFED52086490870012200218448FFF7C6
:101E2000B4FEF02082490870012200218048FFF7AB
:101E3000ACFED9207E490870012200217C48FFF7C2
:101E4000A4FE22207A490870012200217848FFF779
:101E50009CFEDA2076490870012200217448FFF7C1
:101E600094FE122072490870012200217048FFF789
:101E70008CFEDB206E490870012200216C48FFF7C0
:101E800084FE20206A490870012200216848FFF77B
:101E90007CFE8D2066490870012200216448FFF70E
:101EA00074FE142062490870012200216048FFF787
:101EB0006CFEAF205E490870012200215C48FFF7EC
:101EC00064FE10BD70B50546002426E004F1B000A4
:101ED00057490870012200215548FFF756FE00209F
:101EE00053490870012200215148FFF74EFE10208F
:101EF0004F490870012200214D48FFF746FE002699
:101F000007E04B48057001224021FFF73EFE701CA0
:101F1000C6B2802EF5DB601CC4B2082CD6DB70BDC7
:101F200070B5002600242BE004F1B0004049087091
:101F3000012200213E48FFF728FE00203C4908709E
:101F4000012200213A48FFF720FE1020384908708E
:101F5000012200213648FFF718FE00250CE030462C
:101F6000761C5E49085C32490870012240213048E5
:101F7000FFF70BFE681CC5B2802DF0DB601CC4B2FD
:101F8000082CD1DB70BD0CE0002106E0002200E04F
:101F9000521CB2F57A7FFBD3491CB1F57A7FF5D399
:101FA000401E0028F0D170472DE9F04707468846CB
:101FB00091460026002400BFA9E0C4F1B7001C49E7
:101FC0000870012200211A48FFF7DFFD00201849A0
:101FD0000870012200211648FFF7D7FD1020144990
:101FE0000870012200211248FFF7CFFD002587E08D
:101FF000B2C1B3FD656570726F6DB3F6B4EDA3A1A8
:102000000D0A0000B2C1B3FD656570726F6DB3C992
:10201000B9A6A3A10D0A0000C3BBD3D0BCECB2E2A9
:10202000B5BDB4AED0D0454550524F4D210D0A003C
:1020300087000020D0B4656570726F6DB3F6B4EDA3
:10204000A3A10D0A00000000D0B4656570726F6D29
:10205000B3C9B9A6A3A10D0A0000000087010020A2
:10206000B6C1656570726F6DB3F6B4EDA3A10D0ACC
:1020700000000000B6C1656570726F6DB3C9B9A686
:10208000A3ACCAFDBEDDC8E7CFC2A3BA0D0A0000EB
:102090003078253032582000B4EDCEF33A45455023
:1020A000524F4DB6C1B3F6D3EBD0B4C8EBB5C4CAEA
:1020B000FDBEDDB2BBD2BBD6C2000000202530324F
:1020C00058000000656570726F6DB6C1D0B4B2E2A1
:1020D000CAD4B3C9B9A60D0A000000005E2A0008E0
:1020E0003046761C0C49085C0C490870102E00D153
:1020F0000026012240210948FFF747FD681CC5B2B0
:10210000102DEDDB1420FFF73EFF601CC4B2082C3D
:10211000FFF653AFBDE8F0875E2E00088700002071
:10212000002001E0411CC8B20A28FBDB704710B553
:1021300040206149086020200860FFF7F1FF40203F
:102140005D49091D0860FFF7EBFF20205A49091D72
:102150000860FFF7E5FF10BD10B540205649091D86
:1021600008602020091F0860FFF7DAFF402052496D
:10217000086010BD70B50446002520E004F0800022
:1021800018B140204C49086003E040204A49091D2D
:102190000860FFF7C5FF202047490860FFF7C0FF30
:1021A00020204549091D0860072D02D14020091F44
:1021B00008606006040EFFF7B3FF681CC5B2082D67
:1021C000DCDB70BD70B50024002516E06006040E4F
:1021D000202039490860FFF7A3FF37480838006816
:1021E00000F0400008B1601CC4B220203249091D33
:1021F0000860FFF795FF681CC5B2082DE6DB204696
:1022000070BD10B540202C490860FFF789FF2020E1
:1022100029490860FFF784FF27480838006800F064
:10222000400008B1012400E0002420202249091DBB
:102230000860FFF775FF204610BD10B540201E490D
:10224000091D0860FFF76CFF20201B490860FFF79D
:1022500067FF20201849091D0860FFF761FF402033
:102260001549086010BD10B5402013490860FFF7FC
:1022700057FF202010490860FFF752FF20200E4929
:10228000091D0860FFF74CFF10BD08B501210420AF
:10229000FEF776FB6020ADF8000003208DF8020009
:1022A00014208DF80300694603481038FEF7ACF897
:1022B000FFF752FF08BD0000100801400AE000BF10
:1022C00000BF00BF00BF00BF00BF00BF00BF00BF16
:1022D00000BF401E0028F2D1704708B50121102030
:1022E000FEF74EFB0120ADF8000010208DF8030032
:1022F00003208DF8020069465048FEF785F808BDB6
:1023000010B5FFF7EAFF01214C48FEF72AF910BD8E
:1023100008B50120ADF8000048208DF8030069469B
:102320004648FEF771F808BD08B50120ADF8000079
:1023300010208DF8030003208DF8020069463F4805
:10234000FEF762F808BD70B50025002424E000BF48
:1023500001213A48FEF7EBF80028F9D03C20FFF7BE
:10236000ADFF01213548FEF7E2F801280DD100BF8D
:1023700001213248FEF7DBF80128F9D0C4F107014A
:1023800001208840C0B2054304E0C4F107010120E8
:1023900088408543601CC4B2082CD8DB284670BD39
:1023A00010B50446FFF7C0FF01212448FEF7DBF813
:1023B00044F25060FFF782FF01212048FEF7D1F878
:1023C0001E20FFF77BFFFFF7A3FF01211B48FEF74D
:1023D000AEF870BB00BF01211848FEF7A8F800282E
:1023E000F9D000BF01211548FEF7A1F80128F9D066
:1023F000FFF7A9FF2070FFF7A6FF6070FFF7A3FFAC
:10240000A070FFF7A0FFE070FFF79DFF2071FFF7BE
:102410008BFF01210948FEF7A4F820786178084471
:10242000A1780844E17808442179884202D101204A
:1024300010BD01E00020FBE70020F9E7001001409B
:1024400030B527480068274AB0FBF2F1B1F1807F30
:1024500001D301201DE021F07F40401E4FF0E0221B
:10246000506150170F22002807DA13071D0E1E4B6C
:1024700000F00F04241F1D5503E013071C0E1B4B17
:102480001C5400BF00204FF0E02290610720106133
:10249000002008B100BFFEE74FF0E020006920F007
:1024A00001004FF0E021086130BD01B510490098EE
:1024B00008604FF0E020006940F001004FF0E0219B
:1024C000086100BF0A4800680028FBD108BD084821
:1024D000006820B106480068401E05490860704742
:1024E0000000002040420F0018ED00E000E400E092
:1024F000640000202DE9F05F0546002092469B46CF
:1025000088460646814640241BE028464146474609
:10251000224600F042F853465A46C01A914110D361
:1025200011461846224600F029F82D1A67EB0108DB
:102530004F4622460120002100F020F817EB000949
:102540004E41201EA4F10104DFDC484631462A46F4
:102550004346BDE8F09F0000064C074D06E0E068EA
:1025600040F0010394E8070098471034AC42F6D3DA
:10257000FDF7E2FD702E0008902E0008202A04DBF3
:10258000203A00FA02F1002070479140C2F1200386
:1025900020FA03F3194390407047202A04DB203AC5
:1025A00021FA02F00021704721FA02F3D040C2F173
:1025B0002002914008431946704700000FB4054BB4
:1025C00010B503A9044A029800F018F810BC5DF891
:1025D00014FB0000D51400086800002002E008C8C1
:1025E000121F08C1002AFAD170477047002001E08D
:1025F00001C1121F002AFBD1704700002DE9FF4FD7
:102600008DB00F460546002606E025280BD0DDE9F3
:102610000F1290476D1C761C28780028F5D111B058
:102620003046BDE8F08F0024A246A1460122EC49C5
:1026300000E0044315F8013F203B02FA03F0084292
:10264000F7D128782A2810D06FF02F022878A0F12F
:102650003001092914D80AEB8A0102EB410144F048
:10266000020400EB010A6D1CF0E701CF5FEA000AEB
:1026700003D544F40054CAF1000A44F002046D1C6E
:1026800028782E2817D115F8010F44F004042A28C1
:102690000ED06FF02F022878A0F1300109290AD856
:1026A00009EB890102EB410100EB01096D1CF2E726
:1026B00057F8049B6D1C28786C280FD006DC4C283A
:1026C00017D068280DD06A2814D104E0742810D0DF
:1026D0007A280FD10DE044F400140AE044F4801489
:1026E00001E044F440146978814202D104F5801479
:1026F0006D1C6D1C2A786E2A1FD00CDC632A31D029
:1027000004DC002A8BD0582A11D1A3E0642A68D0B7
:10271000692A0CD165E0732A2ED004DC6F2A73D0AD
:10272000702A04D19BE0752A6FD0782A6ED01046AB
:10273000DDE90F129047761C50E1C4F302500228E5
:1027400006D0032809D0042801CF09D0066045E14E
:1027500001CFF117C0E9006140E101CF06803DE102
:1027600006703BE117F8040B8DF8000000208DF88F
:102770000100EB46012003E057F804BB4FF0FF30A7
:1027800061074FF0000102D40DE008F10101884615
:1027900049450FDA8045F8DB1BF808100029F4D111
:1027A00008E008F1010188468142FADB1BF80810B5
:1027B0000029F6D1DDE90F23AAEB08008146214666
:1027C00000F036F9304400EB080604E0DDE90F12B2
:1027D0001BF8010B9047B8F10108F7D22146484693
:1027E000F7E00A21C4F302534FF0000B0891022BCB
:1027F00004D001CFC117032B09D00AE0FF1D27F039
:102800000707F7E8020108E032E01FE020E000B22D
:10281000C117042B01D140B2C117031E71F100038F
:1028200007DA4FF0000CD0EB0C006CEB01012D230C
:1028300002E0230504D52B238DF82430012303E087
:10284000E30701D02023F7E7984658E00A2110E07B
:1028500010210EE010204FF0000B08900CE010212A
:102860004FF0000B44F004044FF00809089103E016
:1028700008214FF0000B0891C4F30253022B04D03F
:1028800001CF0021032B06D006E0FF1D27F007072C
:10289000F7E8020103E080B2042B00D1C0B24FF090
:1028A000000823072BD5702A07D0DDF820C08CF054
:1028B000100C5CEA0B0C05D00EE040238DF82430A0
:1028C000012308E050EA010306D030238DF82430BC
:1028D0008DF8252002239846DDF820C08CF0080CE6
:1028E0005CEA0B0C0BD150EA010301D1630706D55A
:1028F00030238DF824304FF00108A9F10109582A3E
:1029000004D038A20B9208AA0A920BE03AA2F9E787
:102910005B46089AFFF7EEFD0B9B9B5C0A9A521EE2
:102920000A92137050EA0102F2D10A98ADEB00004E
:1029300000F1200B600702D524F4803401E04FF051
:102940000109D94502DDA9EB0B0000E0002000EBF6
:102950000B0141440890AAEB010AE00306D4DDE92B
:102960000F232146504600F063F806444FF000095B
:1029700008E009A911F80900DDE90F12904709F1F3
:102980000109761CC145F4DBE0030CD5DDE90F231A
:102990002146504600F04CF8064404E0DDE90F12F1
:1029A00030209047761C0899481E08900029F5DCD5
:1029B00008E00A980A990078491C0A91DDE90F128B
:1029C0009047761CBBF10001ABF1010BF1DC214615
:1029D0005046DDE90F2300F019F806446D1C1BE694
:1029E00009280100303132333435363738396162E5
:1029F00063646566000000003031323334353637A9
:102A00003839414243444546000000002DE9F04179
:102A1000044600251E461746880404D405E03946BE
:102A20002020B0476D1C641EF9D52846BDE8F08112
:102A30002DE9F041044600251E469046C80301D505
:102A4000302700E02027880404D505E041463846B9
:102A5000B0476D1C641EF9D52846BDE8F08100061C
:102A60000AFE0AC600E000F000F8000000000000C6
:102A7000FE7DBBC7EFEFEFEFEFEFEFC7BB7DFE00D3
:102A80000000000000000000000000000000000046
:102A90000000000000000000000000000000000036
:102AA0000000000000000000000000000000000026
:102AB00000000000000000000000000000080CFE04
:102AC000FE0C082060FEFE60200000007848FE82B8
:102AD000BABA82BABA82BABA82BABA82FE00000020
:102AE00000000000000000000000000000000000E6
:102AF00000010101010101010101010101010000C9
:102B000000000000000000000000000000000000C5
:102B100000000000000000000000000000000000B5
:102B200000000000000000000000000000000000A5
:102B30000000000000000000000000000000000095
:102B40000000000000000000000000000000000085
:102B50000000000000000000000000000000000075
:102B60000000000000000000000000000000000065
:102B7000000000000000000000000000FEFF030352
:102B800003030303030303FFFF0000FEFF0303032C
:102B9000030303030303FFFE00000000C0C0C000E6
:102BA000000000FEFF030303030303030303FFFE10
:102BB0000000FEFF030303030303030303FFFE0000
:102BC0000000000000000000000000000000000005
:102BD00000000000000000000000000000000000F5
:102BE00000000000000000000000000000000000E5
:102BF000000000000000000000000000FFFF0000D7
:102C000000000000000000FFFF0000FFFF0C0C0CA4
:102C10000C0C0C0C0C0CFFFF00000000E1E1E100CB
:102C2000000000FFFF000000000000000000FFFFA8
:102C30000000FFFF0C0C0C0C0C0C0C0C0CFFFF002C
:102C40000000000000000000000000000000000084
:102C50000000000000000000000000000000000074
:102C60000000000000000000000000000000000064
:102C70000000000000000000000000000F1F1818F6
:102C8000181818181818181F0F00000F1F181818F8
:102C90001818181818181F0F000000000000000076
:102CA0000000000F1F1818181818181818181F0FF0
:102CB00000000F1F1818181818181818181F0F00E0
:102CC0000000000000000000000000000000000004
:102CD00000000000000000000000000000000000F4
:102CE00000000000000000000000000000000000E4
:102CF00000000000000000000000000000000000D4
:102D0000000000E2928A8600007C8282827C00FEC3
:102D1000008292AAC60000C0C0007C8282827C0031
:102D200000020202FE0000C0C0007C8282827C00A1
:102D300000FE000000000000000000000000000095
:102D40000000000000000000000000000000000083
:102D5000000000000000000000000000000000244F
:102D6000A42E24E4242EA424000000F84A4C48F8A1
:102D7000484C4AF80000000000000000000000007D
:102D80000000000000000000000000000000000043
:102D90000000000000000000000000000000000033
:102DA0000000000000000000000000000000000023
:102DB0000000000000000000000000000000000013
:102DC00000000000000000000000C02010101010E3
:102DD00020C00000C0201010101020C00000001201
:102DE0000A07027F02070A120000000B0A0A0A7F84
:102DF0000A0A0A0B000000000000000000000000AA
:102E000000000000000000000000000000000000C2
:102E100000000000000000000000000000000000B2
:102E200000000000000000000000000000000000A2
:102E30000000000000000000000000000000000092
:102E4000000000000000000000001F204040405033
:102E5000205F80001F2040404050205F8000000025
:102E6000000000780C7CCCCCCC7600000000000088
:102E7000902E0008000000206C000000DC250008F7
:102E8000FC2E00086C0000201C060000EC25000849
:102E900000A24A0400000000000000000102030438
:102EA00006070809000000000102030401020304F0
:102EB0000607080902040608B8D0D0BBC4FAD1A19D
:102EC000D3C3D2B0BBF073746D3332BFAAB7A2B014
:102ED000E50D0A0000000000000000000068656CBD
:102EE0006C6F20776F726C640000000000000000BF
:0C2EF00000A00000000000000000000036
:0400000508000131BD
:00000001FF
